:020000040800F2
:10000000600600206D010008C50600088306000890
:10001000C106000827020008BD0D0008000000000E
:10002000000000000000000000000000E9060008D9
:100030005105000800000000C7060008D5070008A9
:100040008701000887010008870100088701000870
:100050008701000887010008870100088701000860
:100060008701000887010008870100088701000850
:100070008701000887010008870100088701000840
:100080008701000887010008870100088701000830
:100090008701000887010008870100088701000820
:1000A0008701000887010008870100088701000810
:1000B0008701000887010008870100088701000800
:1000C00087010008870100088701000887010008F0
:1000D00087010008870100088701000887010008E0
:1000E00087010008870100088701000800F002F876
:1000F00000F02CF80AA090E8000C82448344AAF196
:100100000107DA4501D100F021F8AFF2090EBAE893
:100110000F0013F0010F18BFFB1A43F0010318473B
:1001200024FA000034FA00000023002400250026F1
:10013000103A28BF78C1FBD8520728BF30C148BF4A
:100140000B6070471FB51FBD10B510BD00F031F832
:100150001146FFF7F7FF0FF0D9FB00F04FF803B49B
:10016000FFF7F2FF03BC00F057F800000948804792
:1001700009480047FEE7FEE7FEE7FEE7FEE7FEE789
:10018000FEE7FEE7FEE7FEE704480549054A064BA1
:1001900070470000D9070008ED000008600000204B
:1001A0006006002060020020600200207047704757
:1001B0007047754600F02CF8AE4605006946534678
:1001C00020F00700854618B020B5FFF7DDFFBDE839
:1001D00020404FF000064FF000074FF000084FF0AE
:1001E000000B21F00701AC46ACE8C009ACE8C0093F
:1001F000ACE8C009ACE8C0098D46704710B50446AC
:10020000AFF300802046BDE81040FFF7A8BF000014
:10021000004870470000002001491820ABBEFEE7EF
:1002200026000200704700BFFEE7000070B50546DB
:1002300002211C4800F023FA02211A4800F01DFA9E
:100240000221184800F01BFA00241BE00120A04006
:1002500000EA050626B10221124800F010FA03E078
:100260000221104800F009FA01210E4800F007FAB7
:1002700001210C4800F001FA01210A4800F0FFF9C1
:10028000601C84B20C2CE1DB0421064800F0F7F975
:100290000421044800F0F1F90421024800F0EFF9CC
:1002A00070BD00000008014070B5054610211C48D3
:1002B00000F0E5F910211A4800F0DFF91021184884
:1002C00000F0DDF900241BE00120A04000EA050653
:1002D00026B11021124800F0D2F903E01021104895
:1002E00000F0CBF908210E4800F0C9F908210C48AC
:1002F00000F0C3F908210A4800F0C1F9601C84B27B
:100300000C2CE1DB2021064800F0B9F9202104483B
:1003100000F0B3F92021024800F0B1F970BD0000EF
:100320000008014070B5054680211C4800F0A7F97F
:1003300080211A4800F0A1F98021184800F09FF9A7
:1003400000241BE00120A04000EA050626B1802120
:10035000124800F094F903E08021104800F08DF974
:1003600040210E4800F08BF940210C4800F085F93F
:1003700040210A4800F083F9601C84B20C2CE1DBB8
:100380000121074800F07BF90121054800F075F9CB
:100390000121034800F073F970BD0000000801401E
:1003A000000C014070B505464FF480611F4800F015
:1003B00066F94FF480611D4800F05FF94FF48061E9
:1003C0001A4800F05CF900241DE00120A04000EA7A
:1003D00005062EB14FF48061144800F050F904E096
:1003E0004FF48061114800F048F902210F4800F0F5
:1003F00046F902210D4800F040F902210B4800F0B7
:100400003EF9601C84B20C2CDFDB4FF4006107481E
:1004100000F035F94FF40061044800F02EF94FF474
:100420000061024800F02BF970BD0000000C014093
:1004300070B505464FF40051204800F020F94FF404
:1004400000511E4800F019F94FF400511B4800F00C
:1004500016F9002420E00120A04000EA05062EB194
:100460004FF40051154800F00AF904E04FF4005130
:10047000124800F002F94FF48051104800F0FFF8E4
:100480004FF480510D4800F0F8F84FF480510B48BC
:1004900000F0F5F8601C84B20C2CDCDB4FF48041DA
:1004A000064800F0ECF84FF48041044800F0E5F80D
:1004B0004FF48041014800F0E2F870BD000C0140AB
:1004C00070B505464FF40071204800F0D8F84FF49D
:1004D00000711E4800F0D1F84FF400711B4800F085
:1004E000CEF8002420E00120A04000EA05062EB14D
:1004F0004FF40071154800F0C2F804E04FF40071A9
:10050000124800F0BAF84FF48071104800F0B7F8C4
:100510004FF480710D4800F0B0F84FF480710B4833
:1005200000F0ADF8601C84B20C2CDCDB4FF4806171
:10053000064800F0A4F84FF48061044800F09DF8EC
:100540004FF48061014800F09AF870BD0008014046
:1005500070472DE9F04102460025002600200023C7
:100560000024002791F803C00CF00F0591F803C098
:100570000CF0100CBCF1000F03D091F802C04CEA53
:10058000050591F800C0BCF1000F31D014680020BF
:100590002BE04FF0010C0CFA00F3B1F800C00CEAAC
:1005A00003069E4220D183004FF00F0C0CFA03F794
:1005B000BC4305FA03FC4CEA040491F803C0BCF107
:1005C000280F06D14FF0010C0CFA00FCC2F814C041
:1005D0000AE091F803C0BCF1480F05D14FF0010CBF
:1005E0000CFA00FCC2F810C0401C0828D1D31460DB
:1005F000B1F800C0BCF1FF0F34DD546800202EE0DC
:1006000000F1080C4FF0010808FA0CF3B1F800C033
:100610000CEA03069E4221D183004FF00F0C0CFA26
:1006200003F7BC4305FA03FC4CEA040491F803C049
:10063000BCF1280F05D100F1080C08FA0CF8C2F83B
:10064000148091F803C0BCF1480F07D100F1080CE9
:100650004FF0010808FA0CF8C2F81080401C082876
:10066000CED35460BDE8F0810246002093680B4071
:100670000BB1012000E0002070474161704701612B
:10068000704700BFFEE7000010B500244FF4007172
:100690000A48FFF7E9FF70B914200FF023F900BFF3
:1006A0004FF400710548FFF7DFFF0028F8D0142051
:1006B0000FF018F90124204610BD0000000C014085
:1006C00000BFFEE77047704729B1064A92690243AE
:1006D000044B9A6104E0034A92698243014B9A6198
:1006E0007047000000100240704710B500F002F89B
:1006F00010BD00000CB50020019000903348006848
:1007000040F480303149086000BF3048006800F490
:10071000003000900198401C0190009818B9019891
:10072000B0F5A06FF1D12948006800F4003010B195
:100730000120009001E0002000900098012843D1A2
:100740002348006840F0100021490860084600680E
:1007500020F0030008600846006840F002000860CE
:100760001A48406819494860084640684860084689
:10077000406840F4806048600846406820F47C107F
:1007800048600846406840F4E81048600846006841
:1007900040F08070086000BF0C48006800F00070F6
:1007A0000028F9D00948406820F003000749486054
:1007B0000846406840F00200486000BF03484068B7
:1007C00000F00C000828F9D10CBD00000010024018
:1007D000002002407047000010B51348006840F048
:1007E00001001149086008464068104908400E4958
:1007F0004860084600680E4908400B4908600846F2
:10080000006820F4802008600846406820F4FE005C
:1008100048604FF41F008860FFF767FF4FF00060EB
:100820000449086010BD0000001002400000FFF8FD
:10083000FFFFF6FE08ED00E010B50EF0FFFF4FF4ED
:100840007060FFF7F3FC4FF46060FFF7EFFC4FF4CC
:100850005060FFF7EBFC4FF44060FFF7E7FC4FF40C
:100860003060FFF7E3FC4FF42060FFF7DFFC4FF44C
:100870001060FFF7DBFC4FF40060FFF7D7FC0EF0D1
:10088000EBFF4FF47060FFF70FFD4FF46060FFF770
:100890000BFD4FF45060FFF707FD4FF44060FFF78A
:1008A00003FD4FF43060FFF7FFFC4FF42060FFF7CB
:1008B000FBFC4FF41060FFF7F7FC4FF40060FFF70C
:1008C000F3FC0EF0D7FF4FF47060FFF72BFD40F6FE
:1008D0007F60FFF727FD40F67750FFF723FD40F6D6
:1008E0003F40FFF71FFD4FF43060FFF71BFD4FF453
:1008F0002060FFF717FD4FF41060FFF713FD4FF472
:100900000060FFF70FFD0EF0C3FF4FF47060FFF7BC
:1009100049FD4FF46060FFF745FD40F67750FFF763
:1009200041FD40F67340FFF73DFD40F67330FFF7A1
:1009300039FD40F63820FFF735FD40F67910FFF716
:1009400031FD4FF40060FFF72DFD0EF0AFFF4FF4C7
:100950007060FFF76DFD4FF46060FFF769FD4FF4C5
:100960005060FFF765FD4FF44060FFF761FD4FF405
:100970003060FFF75DFD4FF42060FFF759FD4FF445
:100980001060FFF755FD4FF40060FFF751FD0EF0CA
:100990009BFF4FF47060FFF793FD4FF46060FFF72B
:1009A0008FFD4FF45060FFF78BFD4FF44060FFF771
:1009B00087FD4FF43060FFF783FD4FF42060FFF7B1
:1009C0007FFD4FF41060FFF77BFD4FF40060FFF7F1
:1009D00077FD10BD10B50EF031FF4FF47060FFF7DA
:1009E00025FC4FF46060FFF721FC4FF45060FFF7E7
:1009F0001DFC4FF44060FFF719FC4FF43060FFF727
:100A000015FC4FF42060FFF711FC4FF41060FFF766
:100A10000DFC4FF40060FFF709FC0EF01DFF4FF4D2
:100A20007060FFF741FC4FF46060FFF73DFC4FF44E
:100A30005060FFF739FC4FF44060FFF735FC4FF48E
:100A40003060FFF731FC4FF42060FFF72DFC4FF4CE
:100A50001060FFF729FC4FF40060FFF725FC0EF053
:100A600009FF4FF47060FFF75DFC4FF46060FFF723
:100A700059FC4FF45060FFF755FC4FF44060FFF70E
:100A800051FC4FF43060FFF74DFC4FF42060FFF74E
:100A900049FC4FF41060FFF745FC4FF40060FFF78E
:100AA00041FC0EF0F5FE4FF47060FFF77BFC4FF455
:100AB0006060FFF777FC4FF45060FFF773FC4FF472
:100AC0004060FFF76FFC4FF43060FFF76BFC4FF4B2
:100AD0002060FFF767FC4FF41060FFF763FC4FF4F2
:100AE0000060FFF75FFC0EF0E1FE4FF47060FFF76F
:100AF0009FFC4FF46060FFF79BFC4FF45060FFF7E2
:100B000097FC4FF44060FFF793FC4FF43060FFF721
:100B10008FFC4FF42060FFF78BFC4FF41060FFF761
:100B200087FC4FF40060FFF783FC0EF0CDFE4FF41E
:100B30007060FFF7C5FC4FF46060FFF7C1FC4FF435
:100B40005060FFF7BDFC4FF44060FFF7B9FC4FF475
:100B50003060FFF7B5FC4FF42060FFF7B1FC4FF4B5
:100B60001060FFF7ADFC4FF40060FFF7A9FC10BD6B
:100B700010B50EF07FFE4FF47060FFF7D3FB4FF41B
:100B80006060FFF7CFFB40F63850FFF7CBFB40F635
:100B90005C40FFF7C7FB40F6DC30FFF7C3FB40F6D5
:100BA0005E20FFF7BFFB4FF41060FFF7BBFB4FF475
:100BB0000060FFF7B7FB0EF06BFE4FF47060FFF7BD
:100BC000F1FB40F63960FFF7EDFB40F60950FFF707
:100BD000E9FB40F60940FFF7E5FB40F60930FFF777
:100BE000E1FB40F60920FFF7DDFB40F60F10FFF7B1
:100BF000D9FB4FF40060FFF7D5FB3E200EF072FEEC
:100C00000EF046FE0EF044FE4FF47060FFF7CAFB94
:100C100040F67F60FFF7C6FB40F60950FFF7C2FBC6
:100C200040F60940FFF7BEFB40F60930FFF7BAFB7C
:100C300040F60920FFF7B6FB40F60F10FFF7B2FBB6
:100C40004FF40060FFF7AEFB4D200EF04BFE0EF0B0
:100C50001FFE4FF47060FFF7A5FB40F67F60FFF7C3
:100C6000A1FB40F67F50FFF79DFB40F60940FFF7E0
:100C700099FB40F60930FFF795FB40F60920FFF796
:100C800091FB40F60F10FFF78DFB4FF40060FFF76C
:100C900089FB52200EF026FE0EF0FAFD4FF4706034
:100CA000FFF780FB40F67F60FFF77CFB40F67F504C
:100CB000FFF778FB40F67F40FFF774FB40F6093002
:100CC000FFF770FB40F60920FFF76CFB40F60F10B2
:100CD000FFF768FB4FF40060FFF764FB66200EF03F
:100CE00001FE0EF0D5FD4FF47060FFF75BFB40F6A0
:100CF0007F60FFF757FB40F67F50FFF753FB40F64E
:100D00007F40FFF74FFB40F67F30FFF74BFB40F68D
:100D10000920FFF747FB40F60F10FFF743FB4FF4A6
:100D20000060FFF73FFB42200EF0DCFD0EF0B0FD4F
:100D30004FF47060FFF736FB40F67F60FFF732FB41
:100D400040F67F50FFF72EFB40F67F40FFF72AFB6F
:100D500040F67F30FFF726FB40F67F20FFF722FBAF
:100D600040F60F10FFF71EFB4FF40060FFF71AFB71
:100D70006F200EF0B7FD0EF08BFD4FF47060FFF7A3
:100D800011FB40F67F60FFF70DFB40F67F50FFF749
:100D900009FB40F67F40FFF705FB40F67F30FFF789
:100DA00001FB40F67F20FFF7FDFA40F67F10FFF7CA
:100DB000F9FA4FF40060FFF7F5FA10BD00BFFEE747
:100DC00010B50EF03BFD4FF47060FFF72FFA4FF4B3
:100DD0006060FFF72BFA4FF45060FFF727FA4FF4EB
:100DE0004060FFF723FA4FF43060FFF71FFA4FF42B
:100DF0002060FFF71BFA4FF41060FFF717FA4FF46B
:100E00000060FFF713FA0EF027FD4FF47060FFF754
:100E10004BFA4FF46060FFF747FA4FF45060FFF76A
:100E200043FA4FF44060FFF73FFA4FF43060FFF7AA
:100E30003BFA4FF42060FFF737FA4FF41060FFF7EA
:100E400033FA4FF40060FFF72FFA0EF013FD4FF462
:100E50007060FFF767FA4FF46060FFF763FA4FF4D2
:100E60005060FFF75FFA4FF44060FFF75BFA4FF412
:100E70003060FFF757FA4FF42060FFF753FA4FF452
:100E80001060FFF74FFA4FF40060FFF74BFA0EF0D7
:100E9000FFFC4FF47060FFF785FA4FF46060FFF7D6
:100EA00081FA4FF45060FFF77DFA4FF44060FFF78E
:100EB00079FA4FF43060FFF775FA4FF42060FFF7CE
:100EC00071FA4FF41060FFF76DFA4FF40060FFF70E
:100ED00069FA0EF0EBFC4FF47060FFF7A9FA4FF4DB
:100EE0006060FFF7A5FA4FF45060FFF7A1FA4FF4E6
:100EF0004060FFF79DFA4FF43060FFF799FA4FF426
:100F00002060FFF795FA4FF41060FFF791FA4FF465
:100F10000060FFF78DFA0EF0D7FC4FF47060FFF71A
:100F2000CFFA4FF46060FFF7CBFA4FF45060FFF751
:100F3000C7FA4FF44060FFF7C3FA4FF43060FFF791
:100F4000BFFA4FF42060FFF7BBFA4FF41060FFF7D1
:100F5000B7FA4FF40060FFF7B3FA3E200EF0C2FC80
:100F60000EF06CFC4FF47060FFF760F94FF46060B6
:100F7000FFF75CF94FF45060FFF758F94FF4406009
:100F8000FFF754F94FF43060FFF750F94FF4206049
:100F9000FFF74CF94FF41060FFF748F94FF4006089
:100FA000FFF744F90EF058FC4FF47060FFF77CF93E
:100FB0004FF46060FFF778F94FF45060FFF774F971
:100FC0004FF44060FFF770F94FF43060FFF76CF9B1
:100FD0004FF42060FFF768F94FF41060FFF764F9F1
:100FE0004FF40060FFF760F90EF044FC4FF47060BE
:100FF000FFF798F94FF46060FFF794F94FF45060F1
:10100000FFF790F94FF44060FFF78CF94FF4306030
:10101000FFF788F94FF42060FFF784F94FF4106070
:10102000FFF780F94FF40060FFF77CF90EF030FC19
:101030004FF47060FFF7B6F94FF46060FFF7B2F954
:101040004FF45060FFF7AEF94FF44060FFF7AAF994
:101050004FF43060FFF7A6F94FF42060FFF7A2F9D4
:101060004FF41060FFF79EF94FF40060FFF79AF914
:101070000EF01CFC4FF47060FFF7DAF94FF460607B
:10108000FFF7D6F94FF45060FFF7D2F94FF4406004
:10109000FFF7CEF94FF43060FFF7CAF94FF4206044
:1010A000FFF7C6F94FF41060FFF7C2F94FF4006084
:1010B000FFF7BEF90EF008FC4FF47060FFF700FA7E
:1010C0004FF46060FFF7FCF94FF45060FFF7F8F958
:1010D0004FF44060FFF7F4F94FF43060FFF7F0F998
:1010E0004FF42060FFF7ECF94FF41060FFF7E8F9D8
:1010F0004FF40060FFF7E4F93E200EF0F3FB0EF032
:101100009DFB4FF47060FFF791F84FF46060FFF7BC
:101110008DF84FF45060FFF789F84FF44060FFF707
:1011200085F84FF43060FFF781F84FF42060FFF747
:101130007DF84FF41060FFF779F84FF40060FFF787
:1011400075F80EF089FB4FF47060FFF7ADF84FF4BF
:101150006060FFF7A9F84FF45060FFF7A5F84FF46F
:101160004060FFF7A1F84FF43060FFF79DF84FF4AF
:101170002060FFF799F84FF41060FFF795F84FF4EF
:101180000060FFF791F80EF075FB4FF47060FFF709
:10119000C9F84FF46060FFF7C5F84FF45060FFF7EF
:1011A000C1F84FF44060FFF7BDF84FF43060FFF72F
:1011B000B9F84FF42060FFF7B5F84FF41060FFF76F
:1011C000B1F84FF40060FFF7ADF80EF061FB4FF49B
:1011D0007060FFF7E7F84FF46060FFF7E3F84FF453
:1011E0005060FFF7DFF84FF44060FFF7DBF84FF493
:1011F0003060FFF7D7F84FF42060FFF7D3F84FF4D3
:101200001060FFF7CFF84FF40060FFF7CBF80EF057
:101210004DFB4FF47060FFF70BF94FF46060FFF780
:1012200007F94FF45060FFF703F94FF44060FFF700
:10123000FFF84FF43060FFF7FBF84FF42060FFF742
:10124000F7F84FF41060FFF7F3F84FF40060FFF782
:10125000EFF80EF039FB4FF47060FFF731F94FF4FF
:101260006060FFF72DF94FF45060FFF729F94FF454
:101270004060FFF725F94FF43060FFF721F94FF494
:101280002060FFF71DF94FF41060FFF719F94FF4D4
:101290000060FFF715F93E200EF024FB0EF0CEFAA9
:1012A0004FF47060FEF7C2FF4FF46060FEF7BEFFC0
:1012B0004FF45060FEF7BAFF4FF44060FEF7B6FF00
:1012C0004FF43060FEF7B2FF4FF42060FEF7AEFF40
:1012D0004FF41060FEF7AAFF4FF40060FEF7A6FF80
:1012E0000EF0BAFA4FF47060FEF7DEFF4FF4606064
:1012F000FEF7DAFF4FF45060FEF7D6FF4FF4406080
:10130000FEF7D2FF4FF43060FEF7CEFF4FF42060BF
:10131000FEF7CAFF4FF41060FEF7C6FF4FF40060FF
:10132000FEF7C2FF0EF0A6FA4FF47060FEF7FAFF68
:101330004FF46060FEF7F6FF4FF45060FEF7F2FFE7
:101340004FF44060FEF7EEFF4FF43060FEF7EAFF27
:101350004FF42060FEF7E6FF4FF41060FEF7E2FF67
:101360004FF40060FEF7DEFF0EF092FA4FF470606B
:10137000FFF718F84FF46060FFF714F84FF450606F
:10138000FFF710F84FF44060FFF70CF84FF43060AF
:10139000FFF708F84FF42060FFF704F84FF41060EF
:1013A000FFF700F84FF40060FEF7FCFF0EF07EFA46
:1013B0004FF47060FFF73CF84FF46060FFF738F8C7
:1013C0004FF45060FFF734F84FF44060FFF730F807
:1013D0004FF43060FFF72CF84FF42060FFF728F847
:1013E0004FF41060FFF724F84FF40060FFF720F887
:1013F0000EF06AFA4FF47060FFF762F84FF4606025
:10140000FFF75EF84FF45060FFF75AF84FF4406072
:10141000FFF756F84FF43060FFF752F84FF42060B2
:10142000FFF74EF84FF41060FFF74AF84FF40060F2
:10143000FFF746F83E200EF055FA0EF0FFF94FF494
:101440007060FEF7F3FE4FF46060FEF7EFFE4FF4BE
:101450005060FEF7EBFE4FF44060FEF7E7FE4FF4FE
:101460003060FEF7E3FE4FF42060FEF7DFFE4FF43E
:101470001060FEF7DBFE4FF40060FEF7D7FE0EF0C3
:10148000EBF94FF47060FEF70FFF4FF46060FEF76A
:101490000BFF4FF45060FEF707FF4FF44060FEF77C
:1014A00003FF4FF43060FEF7FFFE4FF42060FEF7BD
:1014B000FBFE4FF41060FEF7F7FE4FF40060FEF7FE
:1014C000F3FE0EF0D7F94FF47060FEF72BFF4FF4E8
:1014D0006060FEF727FF4FF45060FEF723FF4FF4E4
:1014E0004060FEF71FFF4FF43060FEF71BFF4FF424
:1014F0002060FEF717FF4FF41060FEF713FF4FF464
:101500000060FEF70FFF0EF0C3F94FF47060FEF7B6
:1015100049FF4FF46060FEF745FF4FF45060FEF75F
:1015200041FF4FF44060FEF73DFF4FF43060FEF79F
:1015300039FF4FF42060FEF735FF4FF41060FEF7DF
:1015400031FF4FF40060FEF72DFF0EF0AFF94FF4BE
:101550007060FEF76DFF4FF46060FEF769FF4FF4B7
:101560005060FEF765FF4FF44060FEF761FF4FF4F7
:101570003060FEF75DFF4FF42060FEF759FF4FF437
:101580001060FEF755FF4FF40060FEF751FF0EF0BC
:101590009BF94FF47060FEF793FF4FF46060FEF725
:1015A0008FFF4FF45060FEF78BFF4FF44060FEF763
:1015B00087FF4FF43060FEF783FF4FF42060FEF7A3
:1015C0007FFF4FF41060FEF77BFF4FF40060FEF7E3
:1015D00077FF3E200EF086F90EF030F94FF4706080
:1015E000FEF724FE4FF46060FEF720FE4FF45060DB
:1015F000FEF71CFE4FF44060FEF718FE4FF430601B
:10160000FEF714FE4FF42060FEF710FE4FF410605A
:10161000FEF70CFE4FF40060FEF708FE0EF01CF91A
:101620004FF47060FEF740FE4FF46060FEF73CFE42
:101630004FF45060FEF738FE4FF44060FEF734FE82
:101640004FF43060FEF730FE4FF42060FEF72CFEC2
:101650004FF41060FEF728FE4FF40060FEF724FE02
:101660000EF008F94FF47060FEF75CFE4FF4606016
:10167000FEF758FE4FF45060FEF754FE4FF4406002
:10168000FEF750FE4FF43060FEF74CFE4FF4206042
:10169000FEF748FE4FF41060FEF744FE4FF4006082
:1016A000FEF740FE0EF0F4F84FF47060FEF77AFE9D
:1016B0004FF46060FEF776FE4FF45060FEF772FE66
:1016C0004FF44060FEF76EFE4FF43060FEF76AFEA6
:1016D0004FF42060FEF766FE4FF41060FEF762FEE6
:1016E0004FF40060FEF75EFE0EF0E0F84FF470601D
:1016F000FEF79EFE4FF46060FEF79AFE4FF45060D6
:10170000FEF796FE4FF44060FEF792FE4FF4306015
:10171000FEF78EFE4FF42060FEF78AFE4FF4106055
:10172000FEF786FE4FF40060FEF782FE0EF0CCF866
:101730004FF47060FEF7C4FE4FF46060FEF7C0FE29
:101740004FF45060FEF7BCFE4FF44060FEF7B8FE69
:101750004FF43060FEF7B4FE4FF42060FEF7B0FEA9
:101760004FF41060FEF7ACFE4FF40060FEF7A8FEE9
:101770003E200EF0B7F80EF061F84FF47060FEF7FF
:1017800055FD4FF46060FEF751FD4FF45060FEF7D9
:101790004DFD4FF44060FEF749FD4FF43060FEF719
:1017A00045FD4FF42060FEF741FD4FF41060FEF759
:1017B0003DFD4FF40060FEF739FD0EF04DF84FF49B
:1017C0007060FEF771FD4FF46060FEF76DFD4FF441
:1017D0005060FEF769FD4FF44060FEF765FD4FF481
:1017E0003060FEF761FD4FF42060FEF75DFD4FF4C1
:1017F0001060FEF759FD4FF40060FEF755FD0EF046
:1018000039F84FF47060FEF78DFD4FF46060FEF71D
:1018100089FD4FF45060FEF785FD4FF44060FEF700
:1018200081FD4FF43060FEF77DFD4FF42060FEF740
:1018300079FD4FF41060FEF775FD4FF40060FEF780
:1018400071FD0EF025F84FF47060FEF7ABFD4FF41C
:101850006060FEF7A7FD4FF45060FEF7A3FD4FF464
:101860004060FEF79FFD4FF43060FEF79BFD4FF4A4
:101870002060FEF797FD4FF41060FEF793FD4FF4E4
:101880000060FEF78FFD0EF011F84FF47060FEF768
:10189000CFFD4FF46060FEF7CBFD4FF45060FEF7D4
:1018A000C7FD4FF44060FEF7C3FD4FF43060FEF714
:1018B000BFFD4FF42060FEF7BBFD4FF41060FEF754
:1018C000B7FD4FF40060FEF7B3FD0DF0FDFF4FF4E0
:1018D0007060FEF7F5FD4FF46060FEF7F1FD4FF428
:1018E0005060FEF7EDFD4FF44060FEF7E9FD4FF468
:1018F0003060FEF7E5FD4FF42060FEF7E1FD4FF4A8
:101900001060FEF7DDFD4FF40060FEF7D9FD3E20CC
:101910000DF0E8FF0DF092FF4FF47060FEF786FCCB
:101920004FF46060FEF782FC4FF45060FEF77EFCDF
:101930004FF44060FEF77AFC4FF43060FEF776FC1F
:101940004FF42060FEF772FC4FF41060FEF76EFC5F
:101950004FF40060FEF76AFC0DF07EFF4FF47060FC
:10196000FEF7A2FC4FF46060FEF79EFC4FF450605F
:10197000FEF79AFC4FF44060FEF796FC4FF430609F
:10198000FEF792FC4FF42060FEF78EFC4FF41060DF
:10199000FEF78AFC4FF40060FEF786FC0DF06AFF4C
:1019A0004FF47060FEF7BEFC4FF46060FEF7BAFCC7
:1019B0004FF45060FEF7B6FC4FF44060FEF7B2FC07
:1019C0004FF43060FEF7AEFC4FF42060FEF7AAFC47
:1019D0004FF41060FEF7A6FC40F64F00FEF7A2FCA5
:1019E0000DF056FF4FF47060FEF7DCFC4FF46060C2
:1019F000FEF7D8FC4FF45060FEF7D4FC4FF4406083
:101A0000FEF7D0FC4FF43060FEF7CCFC4FF42060C2
:101A1000FEF7C8FC40F60610FEF7C4FC40F66F0067
:101A2000FEF7C0FC0DF042FF4FF47060FEF700FDC2
:101A30004FF46060FEF7FCFC4FF45060FEF7F8FCDA
:101A40004FF44060FEF7F4FC4FF43060FEF7F0FC1A
:101A50004FF42060FEF7ECFC4FF41060FEF7E8FC5A
:101A600040F60700FEF7E4FC0DF02EFF4FF4706027
:101A7000FEF726FD4FF46060FEF722FD4FF4506044
:101A8000FEF71EFD4FF44060FEF71AFD4FF4306084
:101A9000FEF716FD4FF42060FEF712FD4FF41060C4
:101AA000FEF70EFD40F65B00FEF70AFD3E200DF04E
:101AB00019FF0DF0C3FE4FF47060FEF7B7FB4FF453
:101AC0006060FEF7B3FB4FF45060FEF7AFFB4FF4DE
:101AD0004060FEF7ABFB4FF43060FEF7A7FB40F62B
:101AE0006D20FEF7A3FB40F66F10FEF79FFB40F65C
:101AF0006F00FEF79BFB0DF0AFFE4FF47060FEF73A
:101B0000D3FB4FF46060FEF7CFFB4FF45060FEF75D
:101B1000CBFB4FF44060FEF7C7FB40F60630FEF704
:101B2000C3FB40F66F20FEF7BFFB40F66F10FEF7D9
:101B3000BBFB40F66F00FEF7B7FB0DF09BFE4FF4CA
:101B40007060FEF7EFFB4FF46060FEF7EBFB4FF4C5
:101B50005060FEF7E7FB4FF44060FEF7E3FB4FF405
:101B60003060FEF7DFFB40F64F20FEF7DBFB40F670
:101B70006F10FEF7D7FB40F66F00FEF7D3FB0DF0BA
:101B800087FE4FF47060FEF70DFC4FF46060FEF7C7
:101B900009FC4FF45060FEF705FC4FF44060FEF77F
:101BA00001FC4FF43060FEF7FDFB4FF42060FEF7C0
:101BB000F9FB40F66610FEF7F5FB40F66F00FEF706
:101BC000F1FB0DF073FE4FF47060FEF731FC4FF443
:101BD0006060FEF72DFC4FF45060FEF729FC4FF4D7
:101BE0004060FEF725FC4FF43060FEF721FC4FF417
:101BF0002060FEF71DFC40F60610FEF719FC40F6CB
:101C00006F00FEF715FC0DF05FFE4FF47060FEF7FD
:101C100057FC4FF46060FEF753FC4FF45060FEF742
:101C20004FFC4FF44060FEF74BFC4FF43060FEF782
:101C300047FC4FF42060FEF743FC4FF41060FEF7C2
:101C40003FFC40F67D00FEF73BFC3E200DF04AFED7
:101C50000DF0F4FD40F66F70FEF7E8FA4FF46060A7
:101C6000FEF7E4FA4FF45060FEF7E0FA4FF44060FC
:101C7000FEF7DCFA4FF43060FEF7D8FA4FF420603C
:101C8000FEF7D4FA40F60710FEF7D0FA40F66F00E0
:101C9000FEF7CCFA0DF0E0FD40F60770FEF704FB0E
:101CA0004FF46060FEF700FB4FF45060FEF7FCFA63
:101CB0004FF44060FEF7F8FA4FF43060FEF7F4FAA4
:101CC0004FF42060FEF7F0FA40F66F10FEF7ECFAE2
:101CD00040F66F00FEF7E8FA0DF0CCFD40F6077015
:101CE000FEF720FB4FF46060FEF71CFB4FF45060E2
:101CF000FEF718FB4FF44060FEF714FB4FF4306022
:101D0000FEF710FB4FF42060FEF70CFB40F67D1051
:101D1000FEF708FB40F66F00FEF704FB0DF0B8FD80
:101D200040F66D70FEF73EFB4FF46060FEF73AFB45
:101D30004FF45060FEF736FB4FF44060FEF732FB85
:101D40004FF43060FEF72EFB4FF42060FEF72AFBC5
:101D50004FF41060FEF726FB40F67F00FEF722FBF3
:101D60000DF0A4FD4FF47060FEF762FB4FF460606D
:101D7000FEF75EFB4FF45060FEF75AFB4FF44060F5
:101D8000FEF756FB4FF43060FEF752FB4FF4206035
:101D9000FEF74EFB4FF41060FEF74AFB40F67D0065
:101DA000FEF746FB0DF090FD4FF47060FEF788FBE8
:101DB0004FF46060FEF784FB4FF45060FEF780FB49
:101DC0004FF44060FEF77CFB4FF43060FEF778FB89
:101DD0004FF42060FEF774FB4FF41060FEF770FBC9
:101DE0004FF40060FEF76CFB3E200DF07BFD0DF024
:101DF00025FD40F66F70FEF719FA40F66F60FEF7AA
:101E000015FA40F66D50FEF711FA4FF44060FEF7F8
:101E10000DFA4FF43060FEF709FA4FF42060FEF738
:101E200005FA40F64F10FEF701FA40F66F00FEF794
:101E3000FDF90DF011FD40F66F70FEF735FA40F632
:101E40006F60FEF731FA40F66650FEF72DFA40F665
:101E50000640FEF729FA4FF43060FEF725FA4FF4FA
:101E60002060FEF721FA40F64F10FEF71DFA40F60B
:101E70006F00FEF719FA0DF0FDFC40F66F70FEF7EB
:101E800051FA40F66F60FEF74DFA40F66D50FEF7DE
:101E900049FA4FF44060FEF745FA4FF43060FEF720
:101EA00041FA4FF42060FEF73DFA40F65B10FEF772
:101EB00039FA40F66F00FEF735FA0DF0E9FC40F60E
:101EC0006F70FEF76FFA40F66F60FEF76BFA40F640
:101ED0006650FEF767FA4FF44060FEF763FA4FF47E
:101EE0003060FEF75FFA4FF42060FEF75BFA4FF4C4
:101EF0001060FEF757FA40F60700FEF753FA0DF0B0
:101F0000D5FC40F66F70FEF793FA40F67F60FEF75F
:101F10008FFA4FF45060FEF78BFA4FF44060FEF7F3
:101F200087FA4FF43060FEF783FA4FF42060FEF733
:101F30007FFA4FF41060FEF77BFA40F65B00FEF785
:101F400077FA0DF0C1FC40F66F70FEF7B9FA40F673
:101F50006D60FEF7B5FA4FF45060FEF7B1FA4FF43A
:101F60004060FEF7ADFA4FF43060FEF7A9FA4FF487
:101F70002060FEF7A5FA4FF41060FEF7A1FA4FF4C7
:101F80000060FEF79DFA3E200DF0ACFC0DF056FC13
:101F900040F66F70FEF74AF940F66F60FEF746F9BB
:101FA00040F66F50FEF742F940F60640FEF73EF964
:101FB0004FF43060FEF73AF94FF42060FEF736F93F
:101FC00040F60610FEF732F940F66F00FEF72EF9E4
:101FD0000DF042FC40F66F70FEF766F940F66F6058
:101FE000FEF762F940F66F50FEF75EF940F65B408F
:101FF000FEF75AF94FF43060FEF756F94FF42060BF
:10200000FEF752F940F66D10FEF74EF940F66F00FC
:10201000FEF74AF90DF02EFC40F66F70FEF782F9DC
:1020200040F66F60FEF77EF940F66F50FEF77AF9E2
:1020300040F65B40FEF776F94FF43060FEF772F938
:102040004FF42060FEF76EF940F64F10FEF76AF984
:1020500040F66F00FEF766F90DF01AFC40F66F705F
:10206000FEF7A0F940F66F60FEF79CF940F67F504E
:10207000FEF798F94FF44060FEF794F94FF43060A2
:10208000FEF790F94FF42060FEF78CF94FF41060E2
:10209000FEF788F940F60700FEF784F90DF006FC1C
:1020A00040F66F70FEF7C4F940F66F60FEF7C0F9B6
:1020B00040F66D50FEF7BCF94FF44060FEF7B8F9FA
:1020C0004FF43060FEF7B4F94FF42060FEF7B0F93A
:1020D0004FF41060FEF7ACF940F64F00FEF7A8F998
:1020E0000DF0F2FB40F66F70FEF7EAF940F66F6014
:1020F000FEF7E6F940F64F50FEF7E2F94FF4406084
:10210000FEF7DEF94FF43060FEF7DAF94FF42060A5
:10211000FEF7D6F94FF41060FEF7D2F940F64F0003
:10212000FEF7CEF93E200DF0DDFB0DF087FB40F60B
:102130006F70FEF77BF840F66F60FEF777F840F6B9
:102140000750FEF773F84FF44060FEF76FF84FF456
:102150003060FEF76BF840F65B20FEF767F840F65C
:102160006F10FEF763F840F66F00FEF75FF80DF0B2
:1021700073FB40F66F70FEF797F840F66F60FEF75E
:1021800093F840F66F50FEF78FF84FF44060FEF77B
:102190008BF84FF43060FEF787F840F64F20FEF7DB
:1021A00083F840F66F10FEF77FF840F66F00FEF7F9
:1021B0007BF80DF05FFB40F66F70FEF7B3F840F66A
:1021C0006F60FEF7AFF840F67D50FEF7ABF84FF4C6
:1021D0004060FEF7A7F84FF43060FEF7A3F840F632
:1021E0005B20FEF79FF840F66F10FEF79BF840F675
:1021F0006F00FEF797F80DF04BFB40F66F70FEF79F
:10220000D1F840F66F60FEF7CDF840F65B50FEF770
:10221000C9F84FF44060FEF7C5F84FF43060FEF7A0
:10222000C1F84FF42060FEF7BDF840F67F10FEF7CE
:10223000B9F840F66F00FEF7B5F80DF037FB40F641
:102240006F70FEF7F5F840F66F60FEF7F1F84FF4A7
:102250005060FEF7EDF84FF44060FEF7E9F84FF4F8
:102260003060FEF7E5F840F60620FEF7E1F840F6AC
:102270007D10FEF7DDF840F66F00FEF7D9F80DF09F
:1022800023FB40F66F70FEF71BF940F67D60FEF70A
:1022900017F94FF45060FEF713F94FF44060FEF762
:1022A0000FF94FF43060FEF70BF940F60620FEF709
:1022B00007F940F66D10FEF703F940F66F00FEF7E0
:1022C000FFF83E200DF00EFB0DF0B8FA40F66F70EF
:1022D000FDF7ACFF40F66F60FDF7A8FF40F66650D3
:1022E000FDF7A4FF4FF44060FDF7A0FF4FF430600E
:1022F000FDF79CFF40F66620FDF798FF40F66F1053
:10230000FDF794FF40F66F00FDF790FF0DF0A4FA83
:1023100040F66F70FDF7C8FF40F66F60FDF7C4FF31
:1023200040F67D50FDF7C0FF4FF44060FDF7BCFF65
:102330004FF43060FDF7B8FF40F67F20FDF7B4FFA3
:1023400040F66F10FDF7B0FF40F66F00FDF7ACFFF1
:102350000DF090FA40F66F70FDF7E4FF40F66F6005
:10236000FDF7E0FF40F67D50FDF7DCFF4FF44060E5
:10237000FDF7D8FF4FF43060FDF7D4FF40F67F2023
:10238000FDF7D0FF40F66F10FDF7CCFF40F66F0071
:10239000FDF7C8FF0DF07CFA40F66F70FEF702F80B
:1023A00040F66F60FDF7FEFF40F60650FDF7FAFFBE
:1023B0004FF44060FDF7F6FF4FF43060FDF7F2FF99
:1023C00040F66620FDF7EEFF40F66F10FDF7EAFFDE
:1023D00040F66F00FDF7E6FF0DF068FA40F66F700B
:1023E000FEF726F840F60760FEF722F84FF450603B
:1023F000FEF71EF84FF44060FEF71AF84FF4306015
:10240000FEF716F840F60620FEF712F840F66F10B9
:10241000FEF70EF840F66F00FEF70AF80DF054FADA
:1024200040F66F70FEF74CF840F64F60FEF748F844
:102430004FF45060FEF744F84FF44060FEF740F868
:102440004FF43060FEF73CF84FF42060FEF738F8A8
:1024500040F67F10FEF734F840F66F00FEF730F8D4
:102460003E200DF03FFA0DF0E9F940F66F70FDF7F0
:10247000DDFE40F66F60FDF7D9FE40F60650FDF731
:10248000D5FE4FF44060FDF7D1FE40F60630FDF773
:10249000CDFE40F66F20FDF7C9FE40F66F10FDF748
:1024A000C5FE40F66F00FDF7C1FE0DF0D5F940F610
:1024B0006F70FDF7F9FE40F66F60FDF7F5FE40F630
:1024C0006650FDF7F1FE4FF44060FDF7EDFE40F67B
:1024D0006D30FDF7E9FE40F66F20FDF7E5FE40F6B2
:1024E0006F10FDF7E1FE40F66F00FDF7DDFE0DF029
:1024F000C1F940F66F70FDF715FF40F66F60FDF70C
:1025000011FF40F65B50FDF70DFF4FF44060FDF703
:1025100009FF40F66630FDF705FF40F66F20FDF736
:1025200001FF40F66F10FDF7FDFE40F66F00FDF76E
:10253000F9FE0DF0ADF940F66F70FDF733FF40F690
:102540007F60FDF72FFF4FF45060FDF72BFF4FF436
:102550004060FDF727FF4FF43060FDF723FF40F6A2
:102560006F20FDF71FFF40F66F10FDF71BFF40F6D1
:102570006F00FDF717FF0DF099F940F66F70FDF74A
:1025800057FF40F67D60FDF753FF40F60650FDF71C
:102590004FFF4FF44060FDF74BFF4FF43060FDF705
:1025A00047FF40F67F20FDF743FF40F66F10FDF731
:1025B0003FFF40F66F00FDF73BFF0DF085F940F659
:1025C0006F70FDF77DFF40F60660FDF779FF4FF471
:1025D0005060FDF775FF4FF44060FDF771FF4FF459
:1025E0003060FDF76DFF40F66D20FDF769FF40F6A6
:1025F0006F10FDF765FF40F66F00FDF761FF3E20AD
:102600000DF070F90DF01AF940F66F70FDF70EFE3F
:1026100040F66F60FDF70AFE40F65B50FDF706FEE0
:102620004FF44060FDF702FE4FF43060FDF7FEFD11
:1026300040F66F20FDF7FAFD40F66F10FDF7F6FD4E
:1026400040F66F00FDF7F2FD0DF006F940F66F70F1
:10265000FDF72AFE40F66F60FDF726FE40F6665055
:10266000FDF722FE4FF44060FDF71EFE40F66D3090
:10267000FDF71AFE40F66F20FDF716FE40F66F10CC
:10268000FDF712FE40F66F00FDF70EFE0DF0F2F8BA
:1026900040F66F70FDF746FE40F66F60FDF742FEB4
:1026A00040F66650FDF73EFE4FF44060FDF73AFEFF
:1026B00040F66630FDF736FE40F66F20FDF732FE3D
:1026C00040F66F10FDF72EFE40F66F00FDF72AFE74
:1026D0000DF0DEF840F66F70FDF764FE40F66F60B7
:1026E000FDF760FE40F65B50FDF75CFE4FF4406086
:1026F000FDF758FE4FF43060FDF754FE40F66F20B2
:10270000FDF750FE40F66F10FDF74CFE40F66F00EF
:10271000FDF748FE0DF0CAF840F66F70FDF788FE31
:1027200040F66F60FDF784FE40F60650FDF780FE30
:102730004FF44060FDF77CFE4FF43060FDF778FE0B
:1027400040F60720FDF774FE40F66F10FDF770FEAF
:1027500040F66F00FDF76CFE0DF0B6F840F66F70B6
:10276000FDF7AEFE40F67D60FDF7AAFE4FF4506027
:10277000FDF7A6FE4FF44060FDF7A2FE4FF4306077
:10278000FDF79EFE40F66D20FDF79AFE40F66F10B5
:10279000FDF796FE40F66F00FDF792FE3E200DF02D
:1027A000A1F80DF04BF840F66F70FDF73FFD40F6D5
:1027B0006F60FDF73BFD40F60750FDF737FD40F633
:1027C0000640FDF733FD4FF43060FDF72FFD40F676
:1027D0007F20FDF72BFD40F66F10FDF727FD40F63B
:1027E0006F00FDF723FD0DF037F840F66F70FDF731
:1027F0005BFD40F66F60FDF757FD40F66F50FDF74B
:1028000053FD4FF44060FDF74FFD4FF43060FDF78E
:102810004BFD40F66F20FDF747FD40F66F10FDF7CA
:1028200043FD40F66F00FDF73FFD0DF023F840F645
:102830006F70FDF777FD40F66F60FDF773FD40F6B2
:102840006F50FDF76FFD4FF44060FDF76BFD4FF4E7
:102850003060FDF767FD40F66F20FDF763FD40F641
:102860006F10FDF75FFD40F66F00FDF75BFD0DF0AB
:102870000FF840F66F70FDF795FD40F66F60FDF7BD
:1028800091FD40F67D50FDF78DFD4FF44060FDF762
:1028900089FD4FF43060FDF785FD40F66D20FDF7B2
:1028A00081FD40F66F10FDF77DFD40F66F00FDF7EE
:1028B00079FD0CF0FBFF40F66F70FDF7B9FD40F6B7
:1028C0006F60FDF7B5FD40F66650FDF7B1FD4FF4C2
:1028D0004060FDF7ADFD4FF43060FDF7A9FD40F617
:1028E0005B20FDF7A5FD40F66F10FDF7A1FD40F65A
:1028F0006F00FDF79DFD0CF0E7FF40F66F70FDF7F0
:10290000DFFD40F66F60FDF7DBFD40F66D50FDF733
:10291000D7FD4FF44060FDF7D3FD4FF43060FDF775
:10292000CFFD4FF42060FDF7CBFD40F66F10FDF7B3
:10293000C7FD40F66F00FDF7C3FD3E200CF0D2FF4F
:102940000CF07CFF40F66F70FDF770FC40F66F6096
:10295000FDF76CFC40F66F50FDF768FC40F6064052
:10296000FDF764FC4FF43060FDF760FC40F6072093
:10297000FDF75CFC40F66F10FDF758FC40F66F0069
:10298000FDF754FC0CF068FF40F66F70FDF78CFC0F
:1029900040F66F60FDF788FC40F66F50FDF784FC51
:1029A00040F64F40FDF780FC4FF43060FDF77CFCB3
:1029B00040F67F20FDF778FC40F66F10FDF774FCC1
:1029C00040F66F00FDF770FC0CF054FF40F66F709E
:1029D000FDF7A8FC40F66F60FDF7A4FC40F66F50D1
:1029E000FDF7A0FC40F64F40FDF79CFC4FF4306033
:1029F000FDF798FC40F60720FDF794FC40F66F10B9
:102A0000FDF790FC40F66F00FDF78CFC0CF040FFEA
:102A100040F66F70FDF7C6FC40F66F60FDF7C2FC34
:102A200040F67F50FDF7BEFC4FF44060FDF7BAFC66
:102A30004FF43060FDF7B6FC40F66620FDF7B2FCBF
:102A400040F66F10FDF7AEFC40F66F00FDF7AAFCF4
:102A50000CF02CFF40F66F70FDF7EAFC40F66F605B
:102A6000FDF7E6FC40F67D50FDF7E2FC4FF44060D8
:102A7000FDF7DEFC4FF43060FDF7DAFC40F606208F
:102A8000FDF7D6FC40F66F10FDF7D2FC40F66F0064
:102A9000FDF7CEFC0CF018FF40F66F70FDF710FD4F
:102AA00040F66F60FDF70CFD40F67F50FDF708FD26
:102AB0004FF44060FDF704FD4FF43060FDF700FD7A
:102AC0004FF42060FDF7FCFC40F66F10FDF7F8FCBA
:102AD00040F66F00FDF7F4FC3E200CF003FF0CF015
:102AE000ADFE40F66F70FDF7A1FB40F66F60FDF79D
:102AF0009DFB40F66F50FDF799FB40F66640FDF7F1
:102B000095FB40F65B30FDF791FB40F66D20FDF73D
:102B10008DFB40F66F10FDF789FB40F66F00FDF767
:102B200085FB0CF099FE40F66F70FDF7BDFB40F69B
:102B30006F60FDF7B9FB40F66F50FDF7B5FB40F64F
:102B40006D40FDF7B1FB4FF43060FDF7ADFB40F693
:102B50000720FDF7A9FB40F66F10FDF7A5FB40F637
:102B60006F00FDF7A1FB0CF085FE40F66F70FDF7DE
:102B7000D9FB40F66F60FDF7D5FB40F66F50FDF7CF
:102B8000D1FB40F67D40FDF7CDFB4FF43060FDF703
:102B9000C9FB40F60720FDF7C5FB40F66F10FDF7B7
:102BA000C1FB40F66F00FDF7BDFB0CF071FE40F677
:102BB0006F70FDF7F7FB40F66F60FDF7F3FB40F633
:102BC0006F50FDF7EFFB40F60640FDF7EBFB4FF4CF
:102BD0003060FDF7E7FB40F66620FDF7E3FB40F6CB
:102BE0006F10FDF7DFFB40F66F00FDF7DBFB0CF02D
:102BF0005DFE40F66F70FDF71BFC40F66F60FDF761
:102C000017FC40F60750FDF713FC4FF44060FDF74A
:102C10000FFC4FF43060FDF70BFC40F60620FDF78B
:102C200007FC40F66F10FDF703FC40F66F00FDF760
:102C3000FFFB0CF049FE40F66F70FDF741FC40F6DB
:102C40006F60FDF73DFC40F66F50FDF739FC4FF427
:102C50004060FDF735FC4FF43060FDF731FC4FF478
:102C60002060FDF72DFC40F66F10FDF729FC40F6C3
:102C70006F00FDF725FC3E200CF034FE0CF0DEFD6D
:102C800040F66F70FDF7D2FA40F66F60FDF7CEFAAE
:102C900040F66F50FDF7CAFA40F65B40FDF7C6FA02
:102CA00040F65B30FDF7C2FA40F67F20FDF7BEFA32
:102CB00040F66F10FDF7BAFA40F66F00FDF7B6FA6E
:102CC0000CF0CAFD40F66F70FDF7EEFA40F66F604B
:102CD000FDF7EAFA40F66F50FDF7E6FA40F6664077
:102CE000FDF7E2FA4FF43060FDF7DEFA40F66F20B0
:102CF000FDF7DAFA40F66F10FDF7D6FA40F66F00EE
:102D0000FDF7D2FA0CF0B6FD40F66F70FDF70AFB46
:102D100040F66F60FDF706FB40F66F50FDF702FBD3
:102D200040F65B40FDF7FEFA4FF43060FDF7FAFA2B
:102D300040F66F20FDF7F6FA40F66F10FDF7F2FA55
:102D400040F66F00FDF7EEFA0CF0A2FD40F66F7052
:102D5000FDF728FB40F66F60FDF724FB40F67F503F
:102D6000FDF720FB4FF44060FDF71CFB40F60630FA
:102D7000FDF718FB40F67D20FDF714FB40F66F10C1
:102D8000FDF710FB40F66F00FDF70CFB0CF08EFD1D
:102D900040F66F70FDF74CFB40F66F60FDF748FBA7
:102DA00040F66D50FDF744FB4FF44060FDF740FBEB
:102DB00040F60630FDF73CFB40F66620FDF738FB99
:102DC00040F66F10FDF734FB40F66F00FDF730FB67
:102DD0000CF07AFD40F66F70FDF772FB40F66F6005
:102DE000FDF76EFB40F67D50FDF76AFB4FF4406047
:102DF000FDF766FB4FF43060FDF762FB40F666209E
:102E0000FDF75EFB40F66F10FDF75AFB40F66F00D2
:102E1000FDF756FB3E200CF065FD0CF00FFD40F673
:102E20006F70FDF703FA40F66F60FDF7FFF940F6AB
:102E30006F50FDF7FBF940F64F40FDF7F7F940F60C
:102E40006D30FDF7F3F940F66F20FDF7EFF940F62E
:102E50006F10FDF7EBF940F66F00FDF7E7F90CF0A6
:102E6000FBFC40F66F70FDF71FFA40F66F60FDF750
:102E70001BFA40F66F50FDF717FA40F60640FDF7D3
:102E800013FA40F64F30FDF70FFA40F66F20FDF7CA
:102E90000BFA40F66F10FDF707FA40F66F00FDF7EA
:102EA00003FA0CF0E7FC40F66F70FDF73BFA40F6D2
:102EB0006F60FDF737FA40F66F50FDF733FA4FF4C5
:102EC0004060FDF72FFA40F64F30FDF72BFA40F641
:102ED0006F20FDF727FA40F66F10FDF723FA40F652
:102EE0006F00FDF71FFA0CF0D3FC40F66F70FDF792
:102EF00059FA40F66F60FDF755FA40F67D50FDF740
:102F000051FA4FF44060FDF74DFA4FF43060FDF791
:102F100049FA40F66F20FDF745FA40F66F10FDF7CD
:102F200041FA40F66F00FDF73DFA0CF0BFFC40F6A9
:102F30006F70FDF77DFA40F66F60FDF779FA40F6A5
:102F40005B50FDF775FA4FF44060FDF771FA4FF4EE
:102F50003060FDF76DFA40F60720FDF769FA40F69C
:102F60006F10FDF765FA40F66F00FDF761FA0CF09F
:102F7000ABFC40F66F70FDF7A3FA40F66F60FDF70B
:102F80009FFA40F65B50FDF79BFA4FF44060FDF767
:102F900097FA4FF43060FDF793FA40F67F20FDF783
:102FA0008FFA40F66F10FDF78BFA40F66F00FDF7D1
:102FB00087FA3E200CF096FC0CF040FC40F66F7057
:102FC000FDF734F940F66F60FDF730F940F6075031
:102FD000FDF72CF940F64F40FDF728F940F66D302B
:102FE000FDF724F940F66F20FDF720F940F66F1049
:102FF000FDF71CF940F66F00FDF718F90CF02CFCFA
:1030000040F66F70FDF750F940F66F60FDF74CF930
:1030100040F66F50FDF748F94FF44060FDF744F972
:1030200040F66D30FDF740F940F66F20FDF73CF9B2
:1030300040F66F10FDF738F940F66F00FDF734F9F0
:103040000CF018FC40F66F70FDF76CF940F66F60FD
:10305000FDF768F940F67F50FDF764F94FF44060E2
:10306000FDF760F940F66D30FDF75CF940F66F2032
:10307000FDF758F940F66F10FDF754F940F66F0070
:10308000FDF750F90CF004FC40F66F70FDF78AF97B
:1030900040F66F60FDF786F940F66D50FDF782F956
:1030A0004FF44060FDF77EF940F65B30FDF77AF9AA
:1030B00040F66F20FDF776F940F66F10FDF772F9D4
:1030C00040F66F00FDF76EF90CF0F0FB40F66F7004
:1030D000FDF7AEF940F66F60FDF7AAF940F606502D
:1030E000FDF7A6F94FF44060FDF7A2F94FF4306008
:1030F000FDF79EF940F66F20FDF79AF940F66F1044
:10310000FDF796F940F66F00FDF792F90CF0DCFB45
:1031100040F66F70FDF7D4F940F66F60FDF7D0F917
:1031200040F60650FDF7CCF94FF44060FDF7C8F9C2
:1031300040F60630FDF7C4F940F66F20FDF7C0F900
:1031400040F66F10FDF7BCF940F66F00FDF7B8F9D7
:103150003E200CF0C7FB0CF071FB40F66F70FDF7E2
:1031600065F840F66F60FDF761F840F67F50FDF7B7
:103170005DF840F64F40FDF759F840F66630FDF730
:1031800055F840F66F20FDF751F840F66F10FDF747
:103190004DF840F66F00FDF749F80CF05DFB40F686
:1031A0006F70FDF781F840F66F60FDF77DF840F62F
:1031B0006F50FDF779F84FF44060FDF775F840F671
:1031C0006D30FDF771F840F66F20FDF76DF840F6B1
:1031D0006F10FDF769F840F66F00FDF765F80CF029
:1031E00049FB40F66F70FDF79DF840F66F60FDF704
:1031F00099F840F67F50FDF795F84FF44060FDF7E1
:1032000091F840F66630FDF78DF840F66F20FDF737
:1032100089F840F66F10FDF785F840F66F00FDF76E
:1032200081F80CF035FB40F66F70FDF7BBF840F607
:103230006F60FDF7B7F840F67D50FDF7B3F840F644
:103240000640FDF7AFF840F60630FDF7ABF840F664
:103250006F20FDF7A7F840F66F10FDF7A3F840F6D2
:103260006F00FDF79FF80CF021FB40F66F70FDF743
:10327000DFF840F66F60FDF7DBF840F64F50FDF7E2
:10328000D7F840F60640FDF7D3F84FF43060FDF76D
:10329000CFF840F67F20FDF7CBF840F66F10FDF732
:1032A000C7F840F66F00FDF7C3F80CF00DFB40F6D1
:1032B0006F70FDF705F940F66F60FDF701F940F614
:1032C0006D50FDF7FDF84FF44060FDF7F9F84FF44D
:1032D0003060FDF7F5F840F66F20FDF7F1F840F6A5
:1032E0006F10FDF7EDF840F66F00FDF7E9F83E20AE
:1032F0000CF0F8FA0CF0A2FA40F66F70FCF796FFAB
:1033000040F66F60FCF792FF40F66F50FCF78EFFBF
:1033100040F66640FCF78AFF40F64F30FCF786FF28
:1033200040F66F20FCF782FF40F66F10FCF77EFF3F
:1033300040F66F00FCF77AFF0CF08EFA40F66F70E3
:10334000FCF7B2FF40F66F60FCF7AEFF40F66F503F
:10335000FCF7AAFF40F60640FCF7A6FF40F65B30FC
:10336000FCF7A2FF40F66F20FCF79EFF40F66F10BF
:10337000FCF79AFF40F66F00FCF796FF0CF07AFA24
:1033800040F66F70FCF7CEFF40F66F60FCF7CAFFA7
:1033900040F66F50FCF7C6FF40F60640FCF7C2FF50
:1033A00040F65B30FCF7BEFF40F66F20FCF7BAFF3B
:1033B00040F66F10FCF7B6FF40F66F00FCF7B2FF67
:1033C0000CF066FA40F66F70FCF7ECFF40F66F60A9
:1033D000FCF7E8FF40F60750FCF7E4FF4FF44060CD
:1033E000FCF7E0FF4FF43060FCF7DCFF40F67F2095
:1033F000FCF7D8FF40F66F10FCF7D4FF40F66F00E3
:10340000FCF7D0FF0CF052FA40F66F70FDF710F8A1
:1034100040F66F60FDF70CF840F67D50FDF708F8B8
:103420004FF44060FDF704F84FF43060FDF700F80A
:1034300040F66D20FCF7FCFF40F66F10FCF7F8FF3C
:1034400040F66F00FCF7F4FF0CF03EFA40F66F70A8
:10345000FDF736F840F66F60FDF732F840F607509A
:10346000FDF72EF84FF44060FDF72AF84FF4306076
:10347000FDF726F840F67D20FDF722F840F66F10A4
:10348000FDF71EF840F66F00FDF71AF83E200CF02D
:1034900029FA0CF0D3F940F66F70FCF7C7FE40F63E
:1034A0006F60FCF7C3FE40F66F50FCF7BFFE40F6BE
:1034B0006640FCF7BBFE40F65B30FCF7B7FE40F61B
:1034C0007F20FCF7B3FE40F66F10FCF7AFFE40F62E
:1034D0006F00FCF7ABFE0CF0BFF940F66F70FCF725
:1034E000E3FE40F66F60FCF7DFFE40F66F50FCF73E
:1034F000DBFE40F66640FCF7D7FE4FF43060FCF789
:10350000D3FE40F66F20FCF7CFFE40F66F10FCF7BD
:10351000CBFE40F66F00FCF7C7FE0CF0ABF940F6AF
:103520006F70FCF7FFFE40F66F60FCF7FBFE40F6A5
:103530006F50FCF7F7FE40F66640FCF7F3FE4FF4E1
:103540003060FCF7EFFE40F67F20FCF7EBFE40F624
:103550006F10FCF7E7FE40F66F00FCF7E3FE0CF09F
:1035600097F940F66F70FCF71DFF40F66F60FCF7AF
:1035700019FF40F66F50FCF715FF40F60640FCF7C8
:1035800011FF4FF43060FCF70DFF40F66D20FCF7A3
:1035900009FF40F66F10FCF705FF40F66F00FCF7DF
:1035A00001FF0CF083F940F66F70FCF741FF40F625
:1035B0006F60FCF73DFF40F67F50FCF739FF4FF49A
:1035C0004060FCF735FF4FF43060FCF731FF40F608
:1035D0005B20FCF72DFF40F66F10FCF729FF40F64B
:1035E0006F00FCF725FF0CF06FF940F66F70FCF7E9
:1035F00067FF40F66F60FCF763FF40F66F50FCF723
:103600005FFF40F60640FCF75BFF4FF43060FCF7CD
:1036100057FF40F65B20FCF753FF40F66F10FCF7B6
:103620004FFF40F66F00FCF74BFF3E200CF05AF9BD
:103630000CF004F940F66F70FCF7F8FD40F66F608F
:10364000FCF7F4FD40F66F50FCF7F0FD40F67D40CE
:10365000FCF7ECFD40F66630FCF7E8FD40F607208D
:10366000FCF7E4FD40F66F10FCF7E0FD40F66F005C
:10367000FCF7DCFD0CF0F0F840F66F70FCF714FE80
:1036800040F66F60FCF710FE40F66F50FCF70CFE42
:1036900040F67D40FCF708FE4FF43060FCF704FE76
:1036A00040F67F20FCF700FE40F66F10FCF7FCFDB3
:1036B00040F66F00FCF7F8FD0CF0DCF840F66F7098
:1036C000FCF730FE40F66F60FCF72CFE40F66F50C2
:1036D000FCF728FE40F67D40FCF724FE4FF43060F6
:1036E000FCF720FE40F67F20FCF71CFE40F66F1032
:1036F000FCF718FE40F66F00FCF714FE0CF0C8F85B
:1037000040F66F70FCF74EFE40F66F60FCF74AFE25
:1037100040F66F50FCF746FE40F60640FCF742FECE
:103720004FF43060FCF73EFE40F66D20FCF73AFEA9
:1037300040F66F10FCF736FE40F66F00FCF732FEE5
:103740000CF0B4F840F66F70FCF772FE40F66F6054
:10375000FCF76EFE40F67F50FCF76AFE4FF44060C7
:10376000FCF766FE4FF43060FCF762FE40F65B202B
:10377000FCF75EFE40F66F10FCF75AFE40F66F0055
:10378000FCF756FE0CF0A0F840F66F70FCF798FEC0
:1037900040F66F60FCF794FE40F66F50FCF790FE29
:1037A00040F60640FCF78CFE4FF43060FCF788FED4
:1037B00040F65B20FCF784FE40F66F10FCF780FEBD
:1037C00040F66F00FCF77CFE3E200CF08BF80CF00E
:1037D00035F840F66F70FCF729FD40F66F60FCF796
:1037E00025FD40F66F50FCF721FD40F64F40FCF7F9
:1037F0001DFD40F66630FCF719FD40F67F20FCF712
:1038000015FD40F66F10FCF711FD40F66F00FCF758
:103810000DFD0CF021F840F66F70FCF745FD40F609
:103820006F60FCF741FD40F66F50FCF73DFD40F640
:103830004F40FCF739FD40F60630FCF735FD40F609
:103840006F20FCF731FD40F66F10FCF72DFD40F6C0
:103850006F00FCF729FD0CF00DF840F66F70FCF7D7
:1038600061FD40F66F60FCF75DFD40F66F50FCF7C0
:1038700059FD40F65B40FCF755FD4FF43060FCF716
:1038800051FD40F66F20FCF74DFD40F66F10FCF740
:1038900049FD40F66F00FCF745FD0BF0F9FF40F6DF
:1038A0006F70FCF77FFD40F66F60FCF77BFD40F624
:1038B0007F50FCF777FD4FF44060FCF773FD40F656
:1038C0000630FCF76FFD40F60720FCF76BFD40F675
:1038D0006F10FCF767FD40F66F00FCF763FD0BF01F
:1038E000E5FF40F66F70FCF7A3FD40F66F60FCF754
:1038F0009FFD40F66D50FCF79BFD4FF44060FCF7D8
:1039000097FD40F60630FCF793FD40F67D20FCF76E
:103910008FFD40F66F10FCF78BFD40F66F00FCF753
:1039200087FD0BF0D1FF40F66F70FCF7C9FD40F644
:103930006F60FCF7C5FD40F67D50FCF7C1FD4FF40C
:103940004060FCF7BDFD4FF43060FCF7B9FD40F678
:103950007D20FCF7B5FD40F66F10FCF7B1FD40F699
:103960006F00FCF7ADFD3E200BF0BCFF0BF066FFD7
:1039700040F66F70FCF75AFC40F66F60FCF756FC9F
:1039800040F66F50FCF752FC40F64F40FCF74EFCFF
:1039900040F66D30FCF74AFC40F66F20FCF746FC21
:1039A00040F66F10FCF742FC40F66F00FCF73EFC5F
:1039B0000BF052FF40F66F70FCF776FC40F66F603C
:1039C000FCF772FC40F66F50FCF76EFC40F60640C8
:1039D000FCF76AFC40F65B30FCF766FC40F66F20B3
:1039E000FCF762FC40F66F10FCF75EFC40F66F00DF
:1039F000FCF75AFC0BF03EFF40F66F70FCF792FCB0
:103A000040F66F60FCF78EFC40F66F50FCF78AFCC6
:103A100040F60640FCF786FC40F65B30FCF782FC83
:103A200040F66F20FCF77EFC40F66F10FCF77AFC46
:103A300040F66F00FCF776FC0BF02AFF40F66F7043
:103A4000FCF7B0FC40F66F60FCF7ACFC40F60750AA
:103A5000FCF7A8FC4FF44060FCF7A4FC4FF4306086
:103A6000FCF7A0FC40F67F20FCF79CFC40F66F10B2
:103A7000FCF798FC40F66F00FCF794FC0BF016FF87
:103A800040F66F70FCF7D4FC40F66F60FCF7D0FC9A
:103A900040F64F50FCF7CCFC4FF44060FCF7C8FCFC
:103AA0004FF43060FCF7C4FC40F60720FCF7C0FC84
:103AB00040F66F10FCF7BCFC40F66F00FCF7B8FC5A
:103AC0000BF002FF40F66F70FCF7FAFC40F66F60F7
:103AD000FCF7F6FC40F64F50FCF7F2FC4FF4406068
:103AE000FCF7EEFC4FF43060FCF7EAFC40F67F2078
:103AF000FCF7E6FC40F66F10FCF7E2FC40F66F00C6
:103B0000FCF7DEFC3E200BF0EDFE0BF097FE40F6DE
:103B10006F70FCF78BFB40F66F60FCF787FB40F69D
:103B20006F50FCF783FB4FF44060FCF77FFB40F6DF
:103B30005B30FCF77BFB40F64F20FCF777FB40F651
:103B40006F10FCF773FB40F66F00FCF76FFB0BF098
:103B500083FE40F66F70FCF7A7FB40F66F60FCF742
:103B6000A3FB40F66F50FCF79FFB40F65B40FCF771
:103B70009BFB4FF43060FCF797FB40F66D20FCF7A1
:103B800093FB40F66F10FCF78FFB40F66F00FCF7DD
:103B90008BFB0BF06FFE40F66F70FCF7C3FB40F63B
:103BA0006F60FCF7BFFB40F66F50FCF7BBFB40F6C5
:103BB0004F40FCF7B7FB4FF43060FCF7B3FB40F627
:103BC0000720FCF7AFFB40F66F10FCF7ABFB40F6AD
:103BD0006F00FCF7A7FB0BF05BFE40F66F70FCF785
:103BE000E1FB40F66F60FCF7DDFB40F66F50FCF741
:103BF000D9FB4FF44060FCF7D5FB4FF43060FCF785
:103C0000D1FB40F64F20FCF7CDFB40F66F10FCF7E0
:103C1000C9FB40F66F00FCF7C5FB0BF047FE40F612
:103C20006F70FCF705FC40F66F60FCF701FC40F696
:103C30007F50FCF7FDFB4FF44060FCF7F9FB4FF4BD
:103C40003060FCF7F5FB40F65B20FCF7F1FB40F63B
:103C50007F10FCF7EDFB40F66F00FCF7E9FB0BF083
:103C600033FE40F66F70FCF72BFC40F66F60FCF7FC
:103C700027FC40F66D50FCF723FC4FF44060FCF746
:103C80001FFC4FF43060FCF71BFC40F60620FCF7ED
:103C900017FC40F66610FCF713FC40F66F00FCF7CB
:103CA0000FFC3E200BF01EFE0BF0C8FD40F66F70BF
:103CB000FCF7BCFA40F66F60FCF7B8FA40F66F50BC
:103CC000FCF7B4FA40F64F40FCF7B0FA40F6063085
:103CD000FCF7ACFA4FF42060FCF7A8FA40F66D1040
:103CE000FCF7A4FA40F66F00FCF7A0FA0BF0B4FD65
:103CF00040F66F70FCF7D8FA40F66F60FCF7D4FA24
:103D000040F66F50FCF7D0FA40F66640FCF7CCFA6C
:103D10004FF43060FCF7C8FA4FF42060FCF7C4FAA7
:103D200040F67D10FCF7C0FA40F66F00FCF7BCFAD5
:103D30000BF0A0FD40F66F70FCF7F4FA40F66F60F0
:103D4000FCF7F0FA40F66F50FCF7ECFA40F66640EC
:103D5000FCF7E8FA4FF43060FCF7E4FA40F606208E
:103D6000FCF7E0FA40F66F10FCF7DCFA40F66F0063
:103D7000FCF7D8FA0BF08CFD40F66F70FCF712FBE5
:103D800040F66F60FCF70EFB40F66F50FCF70AFB45
:103D900040F66D40FCF706FB4FF43060FCF702FB89
:103DA00040F60620FCF7FEFA40F66F10FCF7FAFA30
:103DB00040F66F00FCF7F6FA0BF078FD40F66F70F6
:103DC000FCF736FB40F66F60FCF732FB40F66F50B5
:103DD000FCF72EFB40F66D40FCF72AFB4FF43060F9
:103DE000FCF726FB4FF42060FCF722FB40F65B104B
:103DF000FCF71EFB40F66F00FCF71AFB0BF064FDAE
:103E000040F66F70FCF75CFB40F66F60FCF758FB08
:103E100040F66F50FCF754FB40F66640FCF750FB51
:103E20004FF43060FCF74CFB40F65B20FCF748FB9E
:103E30004FF41060FCF744FB40F67D00FCF740FBBC
:103E40003E200BF04FFD0BF0F9FC40F66F70FCF7D5
:103E5000EDF940F66F60FCF7E9F940F66F50FCF7BA
:103E6000E5F940F66F40FCF7E1F940F60730FCF762
:103E7000DDF940F64F20FCF7D9F940F64F10FCF77A
:103E8000D5F940F66F00FCF7D1F90BF0E5FC40F6F0
:103E90006F70FCF709FA40F66F60FCF705FA40F620
:103EA0006F50FCF701FA40F66F40FCF7FDF940F661
:103EB0000630FCF7F9F94FF42060FCF7F5F94FF400
:103EC0001060FCF7F1F940F66F00FCF7EDF90BF02C
:103ED000D1FC40F66F70FCF725FA40F66F60FCF7F6
:103EE00021FA40F66F50FCF71DFA40F66F40FCF7E0
:103EF00019FA40F66630FCF715FA4FF42060FCF72B
:103F000011FA4FF41060FCF70DFA40F60700FCF7C9
:103F100009FA0BF0BDFC40F66F70FCF743FA40F66F
:103F20006F60FCF73FFA40F66F50FCF73BFA40F643
:103F30006F40FCF737FA40F67D30FCF733FA4FF468
:103F40002060FCF72FFA4FF41060FCF72BFA40F6D4
:103F50000700FCF727FA0BF0A9FC40F66F70FCF79E
:103F600067FA40F66F60FCF763FA40F67F50FCF7A3
:103F70005FFA40F66F40FCF75BFA40F64F30FCF713
:103F800057FA4FF42060FCF753FA40F65B10FCF749
:103F90004FFA40F66F00FCF74BFA0BF095FC40F639
:103FA0006F70FCF78DFA40F66F60FCF789FA4FF4FA
:103FB0005060FCF785FA40F65B40FCF781FA4FF45D
:103FC0003060FCF77DFA4FF42060FCF779FA4FF48B
:103FD0001060FCF775FA40F60700FCF771FA3E2016
:103FE0000BF080FC0BF02AFC40F66F70FCF71EF91A
:103FF00040F66F60FCF71AF940F66F50FCF716F9BF
:1040000040F66F40FCF712F940F66F30FCF70EF9FE
:1040100040F66620FCF70AF940F67F10FCF706F937
:1040200040F66F00FCF702F90BF016FC40F66F70DB
:10403000FCF73AF940F66F60FCF736F940F66F503E
:10404000FCF732F940F66F40FCF72EF940F64F309E
:10405000FCF72AF94FF42060FCF726F940F65B10D4
:10406000FCF722F940F66F00FCF71EF90BF002FC9A
:1040700040F66F70FCF756F940F66F60FCF752F9A6
:1040800040F66F50FCF74EF940F66F40FCF74AF9E6
:1040900040F66630FCF746F94FF42060FCF742F931
:1040A0004FF41060FCF73EF940F66F00FCF73AF968
:1040B0000BF0EEFB40F66F70FCF774F940F66F60A2
:1040C000FCF770F940F66F50FCF76CF940F66F4062
:1040D000FCF768F940F67F30FCF764F94FF4206094
:1040E000FCF760F94FF41060FCF75CF940F67F00D4
:1040F000FCF758F90BF0DAFB40F66F70FCF798F913
:1041000040F66F60FCF794F940F64F50FCF790F9D9
:1041100040F67D40FCF78CF940F64F30FCF788F90B
:104120004FF42060FCF784F940F66610FCF780F944
:1041300040F66F00FCF77CF90BF0C6FB40F66F70A1
:10414000FCF7BEF940F66F60FCF7BAF940F67F5015
:10415000FCF7B6F94FF44060FCF7B2F94FF4306069
:10416000FCF7AEF94FF42060FCF7AAF940F65B10BB
:10417000FCF7A6F940F66F00FCF7A2F93E200BF021
:10418000B1FB0BF05BFB40F66F70FCF74FF840F6AD
:104190006F60FCF74BF840F66F50FCF747F840F6BD
:1041A0006F40FCF743F840F67F30FCF73FF840F6ED
:1041B0006D20FCF73BF840F66F10FCF737F840F63F
:1041C0006F00FCF733F80BF047FB40F66F70FCF71D
:1041D0006BF840F66F60FCF767F840F66F50FCF73D
:1041E00063F840F66F40FCF75FF840F60630FCF7E6
:1041F0005BF84FF42060FCF757F840F66D10FCF7C1
:1042000053F840F66F00FCF74FF80BF033FB40F625
:104210006F70FCF787F840F66F60FCF783F840F6A4
:104220006F50FCF77FF840F66F40FCF77BF840F6E4
:104230005B30FCF777F84FF42060FCF773F840F63A
:104240005B10FCF76FF840F66F00FCF76BF80BF0B3
:104250001FFB40F66F70FCF7A5F840F66F60FCF7A7
:10426000A1F840F67F50FCF79DF840F66F40FCF750
:1042700099F840F60730FCF795F84FF42060FCF70A
:1042800091F840F64F10FCF78DF840F66F00FCF700
:1042900089F80BF00BFB40F66F70FCF7C9F840F69D
:1042A0006F60FCF7C5F840F64F50FCF7C1F840F6D8
:1042B0006640FCF7BDF840F65B30FCF7B9F84FF408
:1042C0002060FCF7B5F840F67D10FCF7B1F840F639
:1042D0006F00FCF7ADF80BF0F7FA40F66F70FCF7E3
:1042E000EFF840F66F60FCF7EBF840F67D50FCF716
:1042F000E7F84FF44060FCF7E3F84FF43060FCF768
:10430000DFF84FF42060FCF7DBF840F64F10FCF7C5
:10431000D7F840F66F00FCF7D3F83E200BF0E2FA36
:104320000BF08CFA40F66F70FBF780FF40F66F6081
:10433000FBF77CFF40F66F50FBF778FF40F66F40CD
:10434000FBF774FF40F60730FBF770FF40F67D2067
:10435000FBF76CFF40F66F10FBF768FF40F66F004D
:10436000FBF764FF0BF078FA40F66F70FBF79CFFE9
:1043700040F66F60FBF798FF40F66F50FBF794FF35
:1043800040F66F40FBF790FF40F60630FBF78CFFDE
:104390004FF42060FBF788FF40F67D10FBF784FFA9
:1043A00040F66F00FBF780FF0BF064FA40F66F7089
:1043B000FBF7B8FF40F66F60FBF7B4FF40F66F50B5
:1043C000FBF7B0FF40F66F40FBF7ACFF40F606305E
:1043D000FBF7A8FF4FF42060FBF7A4FF40F6661040
:1043E000FBF7A0FF40F66F00FBF79CFF0BF050FAC5
:1043F00040F66F70FBF7D6FF40F66F60FBF7D2FF19
:1044000040F67F50FBF7CEFF40F66F40FBF7CAFF48
:1044100040F67D30FBF7C6FF4FF42060FBF7C2FF8C
:1044200040F66610FBF7BEFF40F66F00FBF7BAFFE1
:104430000BF03CFA40F66F70FBF7FAFF40F66F6046
:10444000FBF7F6FF40F64F50FBF7F2FF40F66640F1
:10445000FBF7EEFF40F60630FBF7EAFF4FF4206073
:10446000FBF7E6FF40F60710FBF7E2FF40F66F00B0
:10447000FBF7DEFF0BF028FA40F66F70FCF720F830
:1044800040F66F60FCF71CF840F60750FCF718F890
:104490004FF44060FCF714F84FF43060FCF710F86C
:1044A0004FF42060FCF70CF840F66610FCF708F8B3
:1044B00040F66F00FCF704F83E200BF013FA0BF007
:1044C000BDF940F66F70FBF7B1FE40F66F60FBF789
:1044D000ADFE40F66F50FBF7A9FE40F66F40FBF7CC
:1044E000A5FE40F60730FBF7A1FE40F67D20FBF766
:1044F0009DFE40F66F10FBF799FE40F66F00FBF74C
:1045000095FE0BF0A9F940F66F70FBF7CDFE40F673
:104510006F60FBF7C9FE40F66F50FBF7C5FE40F633
:104520006F40FBF7C1FE40F60630FBF7BDFE4FF4CF
:104530002060FBF7B9FE40F66D10FBF7B5FE40F6C4
:104540006F00FBF7B1FE0BF095F940F66F70FBF7CB
:10455000E9FE40F66F60FBF7E5FE40F66F50FBF7B3
:10456000E1FE40F66F40FBF7DDFE40F60630FBF75C
:10457000D9FE4FF42060FBF7D5FE40F64F10FBF755
:10458000D1FE40F66F00FBF7CDFE0BF081F940F64F
:104590006F70FBF707FF40F66F60FBF703FF40F615
:1045A0000750FBF7FFFE40F66F40FBF7FBFE40F6BF
:1045B0007D30FBF7F7FE4FF42060FBF7F3FE40F68B
:1045C0006610FBF7EFFE40F66F00FBF7EBFE0BF01B
:1045D0006DF940F66F70FBF72BFF40F66F60FBF74D
:1045E00027FF40F64F50FBF723FF40F64F40FBF705
:1045F0001FFF40F65B30FBF71BFF4FF42060FBF71B
:1046000017FF40F60710FBF713FF40F66F00FBF7AC
:104610000FFF0BF059F940F66F70FBF751FF40F6B2
:104620006F60FBF74DFF40F67F50FBF749FF4FF4FB
:104630004060FBF745FF4FF43060FBF741FF4FF45C
:104640002060FBF73DFF40F66610FBF739FF40F6B0
:104650006F00FBF735FF3E200BF044F90BF0EEF84E
:1046600040F66F70FBF7E2FD40F66F60FBF7DEFD92
:1046700040F66F50FBF7DAFD40F66F40FBF7D6FDD2
:1046800040F67D30FBF7D2FD40F66620FBF7CEFD0D
:1046900040F67F10FBF7CAFD40F66F00FBF7C6FD42
:1046A0000BF0DAF840F66F70FBF7FEFD40F66F6036
:1046B000FBF7FAFD40F66F50FBF7F6FD40F66F4052
:1046C000FBF7F2FD4FF43060FBF7EEFD4FF4206096
:1046D000FBF7EAFD40F66610FBF7E6FD40F66F00DB
:1046E000FBF7E2FD0BF0C6F840F66F70FBF71AFE21
:1046F00040F66F60FBF716FE40F66F50FBF712FEB8
:1047000040F66F40FBF70EFE40F60630FBF70AFE60
:104710004FF42060FBF706FE40F65B10FBF702FE4D
:1047200040F66F00FBF7FEFD0BF0B2F840F66F703D
:10473000FBF738FE40F66F60FBF734FE40F607509B
:10474000FBF730FE40F67F40FBF72CFE40F67D3055
:10475000FBF728FE4FF42060FBF724FE40F65B10C9
:10476000FBF720FE40F66F00FBF71CFE0BF09EF8F7
:1047700040F66F70FBF75CFE40F66F60FBF758FE8B
:1047800040F66D50FBF754FE40F65B40FBF750FEE1
:1047900040F65B30FBF74CFE4FF42060FBF748FE21
:1047A00040F67D10FBF744FE40F66F00FBF740FE3D
:1047B0000BF08AF840F66F70FBF782FE40F66F60F0
:1047C000FBF77EFE40F67F50FBF77AFE4FF4406029
:1047D000FBF776FE4FF43060FBF772FE4FF420607B
:1047E000FBF76EFE40F66610FBF76AFE40F66F00C0
:1047F000FBF766FE3E200BF075F80BF01FF840F655
:104800006F70FBF713FD40F66F60FBF70FFD40F68E
:104810006F50FBF70BFD40F66F40FBF707FD40F6CE
:104820007D30FBF703FD40F65B20FBF7FFFC40F615
:104830000710FBF7FBFC40F66F00FBF7F7FC0BF0F3
:104840000BF840F66F70FBF72FFD40F66F60FBF73B
:104850002BFD40F66F50FBF727FD40F67F40FBF73E
:1048600023FD4FF43060FBF71FFD4FF42060FBF792
:104870001BFD40F65B10FBF717FD40F66F00FBF7E2
:1048800013FD0AF0F7FF40F66F70FBF74BFD40F6A3
:104890006F60FBF747FD40F66F50FBF743FD40F6B6
:1048A0006F40FBF73FFD40F60630FBF73BFD4FF452
:1048B0002060FBF737FD4FF41060FBF733FD40F647
:1048C0006F00FBF72FFD0AF0E3FF40F66F70FBF778
:1048D00069FD40F66F60FBF765FD40F60750FBF79A
:1048E00061FD40F67D40FBF75DFD40F67D30FBF756
:1048F00059FD4FF42060FBF755FD4FF41060FBF7B6
:1049000051FD40F66F00FBF74DFD0AF0CFFF40F67A
:104910006F70FBF78DFD40F66F60FBF789FD40F689
:104920000750FBF785FD40F60640FBF781FD40F69A
:104930004F30FBF77DFD4FF42060FBF779FD40F62B
:104940006610FBF775FD40F66F00FBF771FD0AF08E
:10495000BBFF40F66F70FBF7B3FD40F66F60FBF7EF
:10496000AFFD40F67F50FBF7ABFD4FF44060FBF727
:10497000A7FD4FF43060FBF7A3FD4FF42060FBF779
:104980009FFD40F65B10FBF79BFD40F66F00FBF7C9
:1049900097FD3E200AF0A6FF0AF050FF40F66F7028
:1049A000FBF744FC40F66F60FBF740FC40F66F50AD
:1049B000FBF73CFC40F66F40FBF738FC40F67D30DF
:1049C000FBF734FC4FF42060FBF730FC40F66D1031
:1049D000FBF72CFC40F66F00FBF728FC0AF03CFFCD
:1049E00040F66F70FBF760FC40F66F60FBF75CFC15
:1049F00040F66F50FBF758FC40F67F40FBF754FC45
:104A00004FF43060FBF750FC4FF42060FBF74CFC98
:104A10004FF41060FBF748FC40F66F00FBF744FCD6
:104A20000AF028FF40F66F70FBF77CFC40F66F60E1
:104A3000FBF778FC40F66F50FBF774FC40F66F40D4
:104A4000FBF770FC40F60630FBF76CFC4FF420607F
:104A5000FBF768FC4FF41060FBF764FC40F67F0046
:104A6000FBF760FC0AF014FF40F66F70FBF79AFC4E
:104A700040F66F60FBF796FC40F67F50FBF792FC28
:104A800040F66640FBF78EFC40F67D30FBF78AFC73
:104A90004FF42060FBF786FC4FF41060FBF782FCBC
:104AA00040F60700FBF77EFC0AF000FF40F66F704F
:104AB000FBF7BEFC40F66F60FBF7BAFC40F67F5098
:104AC000FBF7B6FC4FF44060FBF7B2FC40F65B30FE
:104AD000FBF7AEFC4FF42060FBF7AAFC40F65B103E
:104AE000FBF7A6FC40F66F00FBF7A2FC0AF0ECFE19
:104AF00040F66F70FBF7E4FC40F66F60FBF7E0FCFC
:104B000040F66F50FBF7DCFC4FF44060FBF7D8FC3D
:104B10004FF43060FBF7D4FC4FF42060FBF7D0FC7F
:104B200040F60610FBF7CCFC40F67F00FBF7C8FC14
:104B30003E200AF0D7FE0AF081FE40F66F70FBF7C8
:104B400075FB40F66F60FBF771FB40F66F50FBF7AB
:104B50006DFB40F66F40FBF769FB40F67D30FBF7DD
:104B600065FB4FF42060FBF761FB40F64F10FBF74D
:104B70005DFB40F66F00FBF759FB0AF06DFE40F657
:104B80006F70FBF791FB40F66F60FBF78DFB40F613
:104B90006F50FBF789FB40F67F40FBF785FB4FF436
:104BA0003060FBF781FB4FF42060FBF77DFB4FF497
:104BB0001060FBF779FB40F67F00FBF775FB0AF00E
:104BC00059FE40F66F70FBF7ADFB40F66F60FBF7E8
:104BD000A9FB40F66F50FBF7A5FB40F66F40FBF7D3
:104BE000A1FB40F65B30FBF79DFB4FF42060FBF729
:104BF00099FB4FF41060FBF795FB40F67D00FBF747
:104C000091FB0AF045FE40F66F70FBF7CBFB40F6D8
:104C10006F60FBF7C7FB40F66F50FBF7C3FB40F636
:104C20000640FBF7BFFB40F66D30FBF7BBFB4FF4D4
:104C30002060FBF7B7FB4FF41060FBF7B3FB40F6C7
:104C40006D00FBF7AFFB0AF031FE40F66F70FBF72B
:104C5000EFFB40F66F60FBF7EBFB40F66F50FBF7A6
:104C6000E7FB40F65B40FBF7E3FB40F60630FBF763
:104C7000DFFB4FF42060FBF7DBFB40F60610FBF791
:104C8000D7FB40F67F00FBF7D3FB0AF01DFE40F692
:104C90006F70FBF715FC40F66F60FBF711FC40F6F8
:104CA0006F50FBF70DFC40F60640FBF709FC4FF494
:104CB0003060FBF705FC4FF42060FBF701FC4FF47C
:104CC0001060FBF7FDFB40F67F00FBF7F9FB3E2091
:104CD0000AF008FE0AF0B2FD40F66F70FBF7A6FA84
:104CE00040F66F60FBF7A2FA40F66F50FBF79EFAB2
:104CF00040F66F40FBF79AFA40F66D30FBF796FAF4
:104D00004FF42060FBF792FA40F65B10FBF78EFA47
:104D100040F66F00FBF78AFA0AF09EFD40F66F70CE
:104D2000FBF7C2FA40F66F60FBF7BEFA40F66F5031
:104D3000FBF7BAFA40F67F40FBF7B6FA4FF4306063
:104D4000FBF7B2FA4FF42060FBF7AEFA4FF41060B5
:104D5000FBF7AAFA40F60700FBF7A6FA0AF08AFD6D
:104D600040F66F70FBF7DEFA40F66F60FBF7DAFA99
:104D700040F66F50FBF7D6FA40F66F40FBF7D2FAD9
:104D800040F60630FBF7CEFA4FF42060FBF7CAFA84
:104D90004FF41060FBF7C6FA40F66D00FBF7C2FA5D
:104DA0000AF076FD40F66F70FBF7FCFA40F66F6094
:104DB000FBF7F8FA40F66F50FBF7F4FA4FF4406057
:104DC000FBF7F0FA40F64F30FBF7ECFA4FF42060B7
:104DD000FBF7E8FA4FF41060FBF7E4FA40F66D00D9
:104DE000FBF7E0FA0AF062FD40F66F70FBF720FB7C
:104DF00040F66F60FBF71CFB40F66F50FBF718FBAB
:104E000040F64F40FBF714FB40F60630FBF710FB73
:104E10004FF42060FBF70CFB4FF41060FBF708FB2E
:104E200040F67F00FBF704FB0AF04EFD40F66F7082
:104E3000FBF746FB40F66F60FBF742FB40F66F5016
:104E4000FBF73EFB40F65B40FBF73AFB4FF430606C
:104E5000FBF736FB4FF42060FBF732FB4FF410609A
:104E6000FBF72EFB40F67F00FBF72AFB3E200AF003
:104E700039FD0AF0E3FC40F66F70FBF7D7F940F616
:104E80006F60FBF7D3F940F66F50FBF7CFF940F6B0
:104E90006F40FBF7CBF940F66D30FBF7C7F94FF4E5
:104EA0002060FBF7C3F940F64F10FBF7BFF940F65F
:104EB0006F00FBF7BBF90AF0CFFC40F66F70FBF711
:104EC000F3F940F66F60FBF7EFF940F66F50FBF730
:104ED000EBF940F67F40FBF7E7F94FF43060FBF762
:104EE000E3F94FF42060FBF7DFF94FF41060FBF7B4
:104EF000DBF940F67F00FBF7D7F90AF0BBFC40F680
:104F00006F70FBF70FFA40F66F60FBF70BFA40F695
:104F10006F50FBF707FA40F66F40FBF703FA40F6D5
:104F20000630FBF7FFF94FF42060FBF7FBF94FF475
:104F30001060FBF7F7F940F66D00FBF7F3F90AF0A4
:104F4000A7FC40F66F70FBF72DFA40F66F60FBF799
:104F500029FA40F66F50FBF725FA4FF44060FBF753
:104F600021FA40F64F30FBF71DFA4FF42060FBF7B3
:104F700019FA4FF41060FBF715FA40F66D00FBF7D5
:104F800011FA0AF093FC40F66F70FBF751FA40F605
:104F90006F60FBF74DFA40F66F50FBF749FA40F6A9
:104FA0004F40FBF745FA4FF43060FBF741FA4FF4FE
:104FB0002060FBF73DFA4FF41060FBF739FA40F63A
:104FC0007F00FBF735FA0AF07FFC40F66F70FBF7C5
:104FD00077FA40F66F60FBF773FA40F66F50FBF715
:104FE0006FFA40F65B40FBF76BFA4FF43060FBF76B
:104FF00067FA4FF42060FBF763FA4FF41060FBF799
:105000005FFA40F67F00FBF75BFA3E200AF06AFC8D
:105010000AF014FC40F66F70FBF708F940F66F6079
:10502000FBF704F940F66F50FBF700F940F66F40CC
:10503000FBF7FCF840F66D30FBF7F8F84FF4206012
:10504000FBF7F4F840F64F10FBF7F0F840F66F006E
:10505000FBF7ECF80AF000FC40F66F70FBF724F960
:1050600040F66F60FBF720F940F66F50FBF71CF934
:1050700040F67F40FBF718F94FF43060FBF714F966
:105080004FF42060FBF710F94FF41060FBF70CF9B8
:1050900040F67F00FBF708F90AF0ECFB40F66F7072
:1050A000FBF740F940F66F60FBF73CF940F66F50B4
:1050B000FBF738F940F66F40FBF734F940F606305D
:1050C000FBF730F94FF42060FBF72CF94FF4106038
:1050D000FBF728F940F67D00FBF724F90AF0D8FB2E
:1050E00040F66F70FBF75EF940F66F60FBF75AF918
:1050F00040F66F50FBF756F94FF44060FBF752F95A
:1051000040F64F30FBF74EF94FF42060FBF74AF9B9
:105110004FF41060FBF746F940F66D00FBF742F9DB
:105120000AF0C4FB40F66F70FBF782F940F66F603F
:10513000FBF77EF940F66F50FBF77AF940F65B40DB
:10514000FBF776F940F60630FBF772F94FF4206072
:10515000FBF76EF94FF41060FBF76AF940F67F0039
:10516000FBF766F90AF0B0FB40F66F70FBF7A8F9A1
:1051700040F66F60FBF7A4F940F66F50FBF7A0F91B
:1051800040F65B40FBF79CF94FF43060FBF798F971
:105190004FF42060FBF794F94FF41060FBF790F99F
:1051A00040F67F00FBF78CF93E200AF09BFB0AF0EB
:1051B00045FB40F66F70FBF739F840F66F60FBF780
:1051C00035F840F66F50FBF731F840F66F40FBF7CB
:1051D0002DF840F66630FBF729F84FF42060FBF716
:1051E00025F840F66610FBF721F840F66F00FBF754
:1051F0001DF80AF031FB40F66F70FBF755F840F6EA
:105200006F60FBF751F840F66F50FBF74DF840F632
:105210007D40FBF749F84FF43060FBF745F84FF459
:105220002060FBF741F84FF41060FBF73DF840F6C3
:105230006F00FBF739F80AF01DFB40F66F70FBF7C3
:1052400071F840F66F60FBF76DF840F66F50FBF7B2
:1052500069F840F67F40FBF765F84FF43060FBF7E4
:1052600061F84FF42060FBF75DF84FF41060FBF736
:1052700059F840F67D00FBF755F80AF009FB40F6B7
:105280006F70FBF78FF840F66F60FBF78BF840F616
:105290007F50FBF787F840F60640FBF783F840F6AF
:1052A0006630FBF77FF84FF42060FBF77BF84FF494
:1052B0001060FBF777F840F67D00FBF773F80AF013
:1052C000F5FA40F66F70FBF7B3F840F66F60FBF746
:1052D000AFF840F66F50FBF7ABF840F60640FBF72F
:1052E000A7F840F60630FBF7A3F84FF42060FBF771
:1052F0009FF84FF41060FBF79BF840F66F00FBF748
:1053000097F80AF0E1FA40F66F70FBF7D9F840F62B
:105310006F60FBF7D5F840F66F50FBF7D1F840F619
:105320000640FBF7CDF84FF43060FBF7C9F84FF4B7
:105330002060FBF7C5F84FF41060FBF7C1F840F6AA
:105340007F00FBF7BDF83E200AF0CCFA0AF076FAAF
:1053500040F66F70FAF76AFF40F66F60FAF766FF83
:1053600040F66F50FAF762FF40F66F40FAF75EFFC3
:1053700040F65B30FAF75AFF4FF42060FAF756FF19
:1053800040F67D10FAF752FF40F66F00FAF74EFF35
:105390000AF062FA40F66F70FAF786FF40F66F6027
:1053A000FAF782FF40F66F50FAF77EFF40F66D4045
:1053B000FAF77AFF4FF43060FAF776FF4FF4206087
:1053C000FAF772FF40F60610FAF76EFF40F66F002C
:1053D000FAF76AFF0AF04EFA40F66F70FAF7A2FF8A
:1053E00040F66F60FAF79EFF40F66F50FAF79AFFAB
:1053F00040F60740FAF796FF4FF43060FAF792FF55
:105400004FF42060FAF78EFF4FF41060FAF78AFF2E
:1054100040F67F00FAF786FF0AF03AFA40F66F701E
:10542000FAF7C0FF40F66F60FAF7BCFF40F607508E
:10543000FAF7B8FF40F65B40FAF7B4FF40F64F309A
:10544000FAF7B0FF4FF42060FAF7ACFF4FF41060AA
:10545000FAF7A8FF40F60700FAF7A4FF0AF026FAC9
:1054600040F66F70FAF7E4FF40F66F60FAF7E0FF7E
:1054700040F67F50FAF7DCFF4FF44060FAF7D8FFB0
:1054800040F65B30FAF7D4FF4FF42060FAF7D0FF14
:1054900040F65B10FAF7CCFF40F66F00FAF7C8FF52
:1054A0000AF012FA40F66F70FBF70AF840F66F60E8
:1054B000FBF706F840F66F50FBF702F84FF4406038
:1054C000FAF7FEFF4FF43060FAF7FAFF4FF420606E
:1054D000FAF7F6FF40F60610FAF7F2FF40F67F0003
:1054E000FAF7EEFF3E200AF0FDF90AF0A7F940F6C0
:1054F0006F70FAF79BFE40F66F60FAF797FE40F682
:105500006F50FAF793FE40F67F40FAF78FFE4FF4A4
:105510003060FAF78BFE4FF42060FAF787FE40F612
:105520007D10FAF783FE40F66F00FAF77FFE0AF06F
:1055300093F940F66F70FAF7B7FE40F66F60FAF72E
:10554000B3FE40F66F50FAF7AFFE40F66640FAF74A
:10555000ABFE4FF43060FAF7A7FE4FF42060FAF785
:10556000A3FE40F65B10FAF79FFE40F66F00FAF7D5
:105570009BFE0AF07FF940F66F70FAF7D3FE40F613
:105580006F60FAF7CFFE40F66F50FAF7CBFE40F6A9
:105590007D40FAF7C7FE4FF43060FAF7C3FE4FF4D0
:1055A0002060FAF7BFFE4FF41060FAF7BBFE40F63A
:1055B0006F00FAF7B7FE0AF06BF940F66F70FAF772
:1055C000F1FE40F66F60FAF7EDFE40F67F50FAF715
:1055D000E9FE40F67F40FAF7E5FE40F64F30FAF775
:1055E000E1FE4FF42060FAF7DDFE40F60610FAF710
:1055F000D9FE40F66F00FAF7D5FE0AF057F940F6EB
:105600006F70FAF715FF40F66F60FAF711FF40F67A
:105610004F50FAF70DFF40F65B40FAF709FF40F6EE
:105620004F30FAF705FF4FF42060FAF701FF40F61C
:105630004F10FAF7FDFE40F66F00FAF7F9FE0AF098
:1056400043F940F66F70FAF73BFF40F66F60FAF7E8
:1056500037FF40F67F50FAF733FF4FF44060FAF718
:105660002FFF4FF43060FAF72BFF4FF42060FAF76A
:1056700027FF40F64F10FAF723FF40F66F00FAF7C6
:105680001FFF3E200AF02EF90AF0D8F840F66F709E
:10569000FAF7CCFD40F66F60FAF7C8FD40F66F50A0
:1056A000FAF7C4FD40F60640FAF7C0FD4FF430604B
:1056B000FAF7BCFD4FF42060FAF7B8FD40F67F1012
:1056C000FAF7B4FD40F66F00FAF7B0FD0AF0C4F83F
:1056D00040F66F70FAF7E8FD40F66F60FAF7E4FD08
:1056E00040F66F50FAF7E0FD40F60640FAF7DCFDB1
:1056F0004FF43060FAF7D8FD4FF42060FAF7D4FD8C
:1057000040F64F10FAF7D0FD40F66F00FAF7CCFDE7
:105710000AF0B0F840F66F70FAF704FE40F66F60DA
:10572000FAF700FE40F66F50FAF7FCFD40F66640CF
:10573000FAF7F8FD4FF43060FAF7F4FD4FF420600B
:10574000FAF7F0FD40F60610FAF7ECFD40F66F00B0
:10575000FAF7E8FD0AF09CF840F66F70FAF722FEBF
:1057600040F66F60FAF71EFE40F66F50FAF71AFE29
:1057700040F66F40FAF716FE40F60630FAF712FED2
:105780004FF42060FAF70EFE40F65B10FAF70AFEBF
:1057900040F66F00FAF706FE0AF088F840F66F70E0
:1057A000FAF746FE40F66F60FAF742FE40F67F5089
:1057B000FAF73EFE40F66F40FAF73AFE40F64F30F9
:1057C000FAF736FE4FF42060FAF732FE40F65B102F
:1057D000FAF72EFE40F66F00FAF72AFE0AF074F888
:1057E00040F66F70FAF76CFE40F66D60FAF768FEEF
:1057F00040F60650FAF764FE40F67D40FAF760FE88
:1058000040F65B30FAF75CFE4FF42060FAF758FE82
:105810004FF41060FAF754FE40F66F00FAF750FEAE
:105820003E200AF05FF80AF009F840F66F70FAF7C8
:10583000FDFC40F66F60FAF7F9FC40F66F50FAF79E
:10584000F5FC40F67D40FAF7F1FC40F67D30FAF7C2
:10585000EDFC40F66620FAF7E9FC40F66F10FAF727
:10586000E5FC40F66F00FAF7E1FC09F0F5FF40F6C1
:105870006F70FAF719FD40F66F60FAF715FD40F604
:105880006F50FAF711FD40F65B40FAF70DFD4FF44B
:105890003060FAF709FD4FF42060FAF705FD40F695
:1058A0006610FAF701FD40F66F00FAF7FDFC09F00B
:1058B000E1FF40F66F70FAF735FD40F66F60FAF7DA
:1058C00031FD40F66F50FAF72DFD40F64F40FAF7E4
:1058D00029FD4FF43060FAF725FD4FF42060FAF708
:1058E00021FD40F60610FAF71DFD40F66F00FAF7AD
:1058F00019FD09F0CDFF40F66F70FAF753FD40F641
:105900006F60FAF74FFD40F66F50FAF74BFD40F627
:105910000740FAF747FD4FF43060FAF743FD4FF4C4
:105920002060FAF73FFD4FF41060FAF73BFD40F6B8
:105930006F00FAF737FD09F0B9FF40F66F70FAF71C
:1059400077FD40F66F60FAF773FD40F66F50FAF797
:105950006FFD40F60740FAF76BFD40F66D30FAF741
:1059600067FD40F65B20FAF763FD4FF41060FAF72D
:105970005FFD40F60700FAF75BFD09F0A5FF40F672
:105980006F70FAF79DFD40F66F60FAF799FD40F6EB
:105990006F50FAF795FD40F67F40FAF791FD40F61B
:1059A0006F30FAF78DFD4FF42060FAF789FD4FF460
:1059B0001060FAF785FD40F64F00FAF781FD3E20B2
:1059C00009F090FF09F03AFF40F66F70FAF72EFCED
:1059D00040F66F60FAF72AFC40F66F50FAF726FCA3
:1059E00040F66F40FAF722FC40F66F30FAF71EFCE3
:1059F00040F67F20FAF71AFC40F67D10FAF716FC05
:105A000040F66F00FAF712FC09F026FF40F66F70BF
:105A1000FAF74AFC40F66F60FAF746FC40F66F5022
:105A2000FAF742FC40F66F40FAF73EFC40F66F3062
:105A3000FAF73AFC40F65B20FAF736FC4FF41060B8
:105A4000FAF732FC40F60600FAF72EFC09F012FFD6
:105A500040F66F70FAF766FC40F66F60FAF762FC8A
:105A600040F66F50FAF75EFC40F66F40FAF75AFCCA
:105A700040F66D30FAF756FC4FF42060FAF752FC0E
:105A80004FF41060FAF74EFC4FF40060FAF74AFC4E
:105A900009F0FEFE40F66F70FAF784FC40F66F6086
:105AA000FAF780FC40F66F50FAF77CFC40F66F4046
:105AB000FAF778FC40F66F30FAF774FC4FF4206088
:105AC000FAF770FC4FF41060FAF76CFC4FF40060CA
:105AD000FAF768FC09F0EAFE40F66F70FAF7A8FCE6
